:100000000C942A000C94D8070C9401080C942A082C
:100010000C9447000C9447000C9475070C9447000F
:100020000C9447000C9447000C9424070C94D306BE
:100030000C9447000C9447000C9447000C94470024
:100040000C9447000C9447000C9447000C94470014
:100050000C94470011241FBECFE5D8E0DEBFCDBF12
:1000600010E0A0E6B0E0E4EFFCE102C005900D92E4
:10007000A237B107D9F710E0A2E7B0E001C01D92A6
:10008000AD38B107E1F70E940A060C94780E0C9483
:100090000000EF92FF920F931F937B018C0120E0F1
:1000A00030E040E05FE40E94490388238CF0C801FF
:1000B000B70120E030E040E05FE40E94C1010E940F
:1000C000A9039B01AC01205030404040504806C07D
:1000D000C801B7010E94A9039B01AC01B901CA0183
:1000E0001F910F91FF90EF900895A0E0B0E0EBE733
:1000F000F0E00C94410EDC012B01FA019C9192304E
:1001000008F439C1EB018881823008F433C194309E
:1001100069F4843009F02FC111969C91119789815F
:10012000981709F428C1A0E6B0E025C1843009F48D
:1001300021C18230A9F4923009F01DC19A01AD01AC
:1001400088E0EA010990AE01E90109929E0181501F
:10015000C1F7E201898111969C918923818308C1AD
:10016000923009F407C112962D903C901397EB0141
:100170008A819B811496AD90BD90CD90DC901797AD
:10018000EC80FD800E811F819101281B390BB90184
:1001900037FF04C066277727621B730B6032710537
:1001A0000CF061C0121613066CF537014801062EDB
:1001B00004C096948794779467940A94D2F721E0C8
:1001C00030E040E050E004C0220F331F441F551FB1
:1001D0006A95D2F721503040404050402E213F21B7
:1001E00040235123211531054105510521F021E01E
:1001F00030E040E050E079018A01E628F72808293C
:1002000019293CC0232BD1F1260E371E350146019A
:10021000062E04C096948794779467940A94D2F734
:1002200021E030E040E050E004C0220F331F441FC3
:10023000551F6A95D2F721503040404050402A2146
:100240003B214C215D21211531054105510521F04E
:1002500021E030E040E050E059016A01A628B728CB
:10026000C828D9280BC0821593052CF01C01AA249C
:10027000BB24650103C0EE24FF24870111969C91E5
:10028000D20111968C91981709F445C0992339F041
:10029000A80197012A193B094C095D0906C0A6016E
:1002A00095012E193F09400B510B57FD08C01182D3
:1002B0003382228224833583468357831DC081E0A5
:1002C00081833382228288279927DC01821B930B4A
:1002D000A40BB50B84839583A683B7830DC0220F2F
:1002E000331F441F551F24833583468357838281E0
:1002F000938101979383828324813581468157813D
:10030000DA01C9010197A109B1098F5F9F4FAF4F72
:10031000BF4328F30BC0918333822282EA0CFB1C7B
:100320000C1D1D1DE482F5820683178383E0808304
:10033000248135814681578157FF1AC0C901AA27F8
:1003400097FDA095BA2F81709070A070B0705695EF
:10035000479537952795822B932BA42BB52B848318
:100360009583A683B7838281938101969383828349
:10037000DF0101C0D201CD01CDB7DEB7E2E10C94BF
:100380005D0EA0E2B0E0E7ECF1E00C944D0E698365
:100390007A838B839C832D833E834F835887E9E048
:1003A000EE2EF12CEC0EFD1ECE010196B7010E943F
:1003B000D2048E010F5E1F4FCE010596B8010E9438
:1003C000D2048A8991E089278A8BC701B801AE01DE
:1003D000475E5F4F0E9475000E94FD03A096E6E015
:1003E0000C94690EA0E2B0E0E8EFF1E00C944D0E41
:1003F00069837A838B839C832D833E834F835887C5
:10040000F9E0EF2EF12CEC0EFD1ECE010196B701A6
:100410000E94D2048E010F5E1F4FCE010596B801D7
:100420000E94D204C701B801AE01475E5F4F0E942F
:1004300075000E94FD03A096E6E00C94690EA0E210
:10044000B0E0E5E2F2E00C94410E69837A838B839D
:100450009C832D833E834F835887CE010196BE0136
:10046000675F7F4F0E94D204CE010596BE016F5E8A
:100470007F4F0E94D2049985923088F0898982301A
:10048000C8F0943019F4823051F404C0843029F457
:10049000923081F480E690E0C6C0923049F420E0CA
:1004A0009A858A89981321E02A87CE010996BBC0D4
:1004B000823049F420E09A858A89981321E02A8BBA
:1004C000CE014196B0C02D843E844F8458886D88FB
:1004D0007E888F88988CEE24FF248701AA24BB2471
:1004E000650140E050E060E070E0E0E0F0E0C10174
:1004F00081709070892BE9F0E60CF71C081D191D1E
:100500009A01AB012A0D3B1D4C1D5D1D80E090E062
:10051000A0E0B0E0E614F7040805190520F481E036
:1005200090E0A0E0B0E0BA01A901480F591F6A1F8E
:100530007B1FAA0CBB1CCC1CDD1C97FE08C081E0F5
:1005400090E0A0E0B0E0A82AB92ACA2ADB2A3196B6
:10055000E032F10549F0660C771C881C991C569412
:10056000479437942794C3CFFA85EA892B893C892D
:100570008B859C85280F391F2E5F3F4F17C0CA01FE
:1005800081709070892B61F016950795F794E79428
:1005900080E090E0A0E0B0E8E82AF92A0A2B1B2BC3
:1005A00076956795579547952F5F3F4F77FDE7CF36
:1005B0000CC0440F551F661F771F17FD4160EE0CDE
:1005C000FF1C001F111F21503040403090E05907A0
:1005D00090E0690790E4790760F32B8F3C8FDB0193
:1005E000CA018F779070A070B07080349105A1051A
:1005F000B10561F447FD0AC0E114F10401051105DC
:1006000029F0405C5F4F6F4F7F4F40781A8EFE1786
:1006100011F081E08A8F4D8F5E8F6F8F78A383E01A
:10062000898FCE0149960E94FD03A096E2E10C94C9
:100630005D0EA8E1B0E0EFE1F3E00C944D0E6983AC
:100640007A838B839C832D833E834F83588789E0F5
:10065000E82EF12CEC0EFD1ECE010196B7010E9492
:10066000D2048E010F5E1F4FCE010596B8010E9485
:10067000D2048985823040F08989823028F0C70110
:10068000B8010E944A0501C08FEF6896E6E00C941D
:10069000690EA8E1B0E0EFE4F3E00C944D0E69833D
:1006A0007A838B839C832D833E834F83588789E095
:1006B000E82EF12CEC0EFD1ECE010196B7010E9432
:1006C000D2048E010F5E1F4FCE010596B8010E9425
:1006D000D2048985823040F08989823028F0C701B0
:1006E000B8010E944A0501C08FEF6896E6E00C94BD
:1006F000690EA8E1B0E0EFE7F3E00C944D0E6983DA
:100700007A838B839C832D833E834F83588789E034
:10071000E82EF12CEC0EFD1ECE010196B7010E94D1
:10072000D2048E010F5E1F4FCE010596B8010E94C4
:10073000D2048985823040F08989823028F0C7014F
:10074000B8010E944A0501C081E06896E6E00C9479
:10075000690EACE0B0E0EFEAF3E00C94510E69836F
:100760007A838B839C83CE010196BE016B5F7F4FA2
:100770000E94D2048D81823061F1823050F1843048
:1007800021F48E81882351F12EC02F81388537FDC9
:1007900020C06E812F3131051CF06623F9F023C093
:1007A0008EE190E0821B930B29853A854B855C8511
:1007B00004C056954795379527958A95D2F76623B5
:1007C000B1F050954095309521953F4F4F4F5F4F79
:1007D0000EC020E030E040E050E009C02FEF3FEFD6
:1007E0004FEF5FE704C020E030E040E050E8B9019F
:1007F000CA012C96E2E00C946D0EDF92EF92FF920C
:100800000F931F93FC01E480F58006811781D1804E
:100810008081823048F480E090E0A0E1B0E0E82AF6
:10082000F92A0A2B1B2BA5C0843009F49FC0823003
:1008300021F4EE24FF24870105C0E114F104010531
:10084000110519F4E0E0F0E096C0628173819FEF3A
:10085000623879070CF05BC022E83FEF261B370BAC
:100860002A3131052CF020E030E040E050E02AC091
:10087000B801A701022E04C0769567955795479554
:100880000A94D2F781E090E0A0E0B0E004C0880FC5
:10089000991FAA1FBB1F2A95D2F70197A109B10979
:1008A0008E219F21A023B1230097A105B10521F03E
:1008B00081E090E0A0E0B0E09A01AB01282B392B59
:1008C0004A2B5B2BDA01C9018F779070A070B07052
:1008D00080349105A105B10539F427FF09C0205CDA
:1008E0003F4F4F4F5F4F04C0215C3F4F4F4F5F4F13
:1008F000E0E0F0E02030A0E03A07A0E04A07A0E402
:100900005A0710F0E1E0F0E079018A0127C0603871
:10091000710564F5FB01E158FF4FD801C7018F77DE
:100920009070A070B07080349105A105B10539F4C4
:10093000E7FE0DC080E490E0A0E0B0E004C08FE3EB
:1009400090E0A0E0B0E0E80EF91E0A1F1B1F17FFA1
:1009500005C016950795F794E794319687E01695AC
:100960000795F794E7948A95D1F705C0EE24FF2404
:100970008701EFEFF0E06E2F679566276795902F60
:100980009F77D794DD24D7948E2F8695492F462BB9
:10099000582F5D29B701CA011F910F91FF90EF9069
:1009A000DF900895FC01DB01408151812281622F9B
:1009B0006F7770E0221F2227221F9381892F880FD3
:1009C000822B282F30E0991F9927991F11969C930D
:1009D000119721153105A9F54115510561057105DD
:1009E00011F482E037C082E89FEF13969C938E93B8
:1009F00012979A01AB0167E0220F331F441F551F66
:100A00006A95D1F783E08C930DC0220F331F441FEA
:100A1000551F12968D919C911397019713969C9355
:100A20008E931297203080E0380780E0480780E4FA
:100A3000580758F314962D933D934D935C93179755
:100A400008952F3F310579F4411551056105710570
:100A500019F484E08C93089564FF03C081E08C93C3
:100A600012C01C9210C02F57304013963C932E9307
:100A7000129783E08C9387E0440F551F661F771F02
:100A80008A95D1F7706414964D935D936D937C9322
:100A9000179708951F93DC01FB019C91923008F495
:100AA00047C08081823008F443C0943051F41196DD
:100AB0001C91843099F58181682F70E0611B710968
:100AC0003FC0843021F0923031F48230B9F181811D
:100AD000882389F12DC011961C9111978230F1F075
:100AE00081811817D9F412962D913C911397828128
:100AF00093818217930794F028173907BCF0149656
:100B00008D919D910D90BC91A02D248135814681C0
:100B10005781281739074A075B0718F4112341F05A
:100B20000AC082179307A407B50740F4112319F0F0
:100B300061E070E005C06FEF7FEF02C060E070E041
:100B4000CB011F91089580E063E041E00E94CF084F
:100B500080E062E040E00E94CF0880E395E728EC67
:100B600030E0F9013197F1F70197D9F780E062E0C1
:100B700040E00E94CF0880E063E040E00E94CF08A0
:100B8000089580E062E041E00E94CF0880E063E0E9
:100B900040E00E94CF0880E395E728EC30E0F901BF
:100BA0003197F1F70197D9F780E062E040E00E94C9
:100BB000CF0880E063E040E00E94CF08089580E025
:100BC0000E94D5099C0190938C0080938B0083E058
:100BD0002032380750F080917200882331F40E944F
:100BE000C10581E08093720008952C5B324088F447
:100BF00080917200813069F40E94A30588EB9BE02C
:100C000028EC30E0F9013197F1F70197D9F710920C
:100C10007200089580E060E040E00E945C0880E09F
:100C200062E041E00E945C0880E063E041E00E94F5
:100C30005C080E94CB090E94DF05FDCF91B587704B
:100C4000987F892B81BD81B5886081BD089588E139
:100C500081BD11BC089588E18AB986E880BD83E32F
:100C600089B910BC08955D9BFECF8CB908955F9B38
:100C7000FECF8CB108954093750050937600609339
:100C80007700709378009093800080937F000895A0
:100C900090937A008093790040937500509376008A
:100CA00060937700709378002CBF0895882329F40F
:100CB00083B7887F826083BF0895823021F48EB528
:100CC000887F82608EBD0895882321F483B7887F52
:100CD00083BF0895823019F48EB5887F8EBD089544
:100CE000882319F0813029F402C06CBF08957BBDC0
:100CF0006ABD08959093740080937300089526B59B
:100D000037B5C9010895882319F0813041F404C032
:100D10008EB580648EBD08958EB58F7B8EBD08958F
:100D2000882361F4662319F0623079F403C089B72F
:100D3000816002C089B7826089BF0895823029F43A
:100D4000662319F489B7806289BF089583B78064E8
:100D500083BF83B7886083BF80E063E00E94900612
:100D600083B78B7F83BF83B78D7F83BF83B78E7F2E
:100D700083BF1FBC82E48EBD0895882361F466237F
:100D800019F0623079F403C089B78E7F02C089B749
:100D90008D7F89BF0895823029F4662319F489B7BD
:100DA0008F7D89BF08951F920F920FB60F92112465
:100DB0002F933F934F935F936F937F938F939F9363
:100DC000AF93BF93EF93FF93809181009091820046
:100DD000A0918300B09184000196A11DB11D809364
:100DE000810090938200A0938300B09384002091AF
:100DF000750030917600409177005091780082170D
:100E00009307A407B50779F4E0917F00F091800083
:100E1000309749F00995109281001092820010924B
:100E2000830010928400FF91EF91BF91AF919F9149
:100E30008F917F916F915F914F913F912F910F9083
:100E40000FBE0F901F9018951F920F920FB60F9222
:100E500011242F933F934F935F936F937F938F93BF
:100E60009F93AF93BF93EF93FF9380917B009091FB
:100E70007C00A0917D00B0917E000196A11DB11D66
:100E800080937B0090937C00A0937D00B0937E00C4
:100E90002091750030917600409177005091780054
:100EA00082179307A407B50779F4E0917900F091D0
:100EB0007A00309749F0099510927B0010927C00DF
:100EC00010927D0010927E00FF91EF91BF91AF9143
:100ED0009F918F917F916F915F914F913F912F9152
:100EE0000F900FBE0F901F9018951F920F920FB684
:100EF0000F9211242F933F934F935F936F937F93A0
:100F00008F939F93AF93BF93EF93FF93E091730001
:100F1000F0917400309709F00995FF91EF91BF911E
:100F2000AF919F918F917F916F915F914F913F9181
:100F30002F910F900FBE0F901F9018958FB9779B30
:100F4000FECF8FB108958FB9779BFECF0895779B21
:100F5000FECF8FB1089581E065E040E00E945C081B
:100F600081E067E040E00E945C0881E066E041E0EB
:100F70000E945C088AE58DB908958FB780688FBF9D
:100F800008958FB78F778FBF089585B7816085BF2C
:100F900085B7826085BF8BB780648BBF0895E62FCD
:100FA000F0E0EE0FFF1FEB57FF4F91838083089512
:100FB0001F920F920FB60F9211242F933F934F93CE
:100FC0005F936F937F938F939F93AF93BF93EF93B1
:100FD000FF93E0918500F0918600309709F0099524
:100FE000FF91EF91BF91AF919F918F917F916F9101
:100FF0005F914F913F912F910F900FBE0F901F90D7
:1010000018951F920F920FB60F9211242F933F93B2
:101010004F935F936F937F938F939F93AF93BF9300
:10102000EF93FF93E0918700F0918800309709F0EB
:101030000995FF91EF91BF91AF919F918F917F9112
:101040006F915F914F913F912F910F900FBE0F9035
:101050001F9018951F920F920FB60F9211242F9385
:101060003F934F935F936F937F938F939F93AF9330
:10107000BF93EF93FF93E0918900F0918A0030973E
:1010800009F00995FF91EF91BF91AF919F918F91D9
:101090007F916F915F914F913F912F910F900FBE74
:1010A0000F901F9018951ABA17BA14BA11BA1BBA32
:1010B00018BA15BA12BA08954130B1F5813099F0D5
:1010C000813030F08230D1F0833009F067C021C028
:1010D0002AB381E090E002C0880F991F6A95E2F779
:1010E000282B2ABB089527B381E090E002C0880F27
:1010F000991F6A95E2F7282B27BB089524B381E056
:1011000090E002C0880F991F6A95E2F7282B24BB54
:10111000089521B381E090E002C0880F991F6A957D
:10112000E2F7282B21BB08954423C1F5813099F0C3
:10113000813028F08230D9F0833081F524C02AB381
:1011400081E090E002C0880F991F6A95E2F78095D0
:1011500082238ABB089527B381E090E002C0880F04
:10116000991F6A95E2F78095822387BB089524B37F
:1011700081E090E002C0880F991F6A95E2F78095A0
:10118000822384BB089521B381E090E002C0880FE0
:10119000991F6A95E2F78095822381BB08954130BB
:1011A000B1F5813099F0813030F08230D1F0833068
:1011B00009F067C021C02BB381E090E002C0880F26
:1011C000991F6A95E2F7282B2BBB089528B381E07D
:1011D00090E002C0880F991F6A95E2F7282B28BB80
:1011E000089525B381E090E002C0880F991F6A95A9
:1011F000E2F7282B25BB089522B381E090E002C0DE
:10120000880F991F6A95E2F7282B22BB0895442383
:10121000C1F5813099F0813028F08230D9F08330E7
:1012200081F524C02BB381E090E002C0880F991FA4
:101230006A95E2F7809582238BBB089528B381E0FD
:1012400090E002C0880F991F6A95E2F7809582238B
:1012500088BB089525B381E090E002C0880F991FF4
:101260006A95E2F78095822385BB089522B381E0D9
:1012700090E002C0880F991F6A95E2F7809582235B
:1012800082BB0895813051F0813030F0823041F0DE
:10129000833079F080E0089589B303C086B301C03C
:1012A00083B390E002C0959587956A95E2F78170C7
:1012B000089580B390E002C0959587956A95E2F70E
:1012C00081700895813049F0813028F0823039F002
:1012D000833041F406C06ABB089567BB089564BBC0
:1012E000089561BB0895813049F0813028F0823043
:1012F00039F0833041F406C06BBB089568BB089594
:1013000065BB089562BB0895813051F0813030F0A3
:10131000823041F0833041F080E0089589B3089530
:1013200086B3089583B3089580B30895813091F012
:10133000813028F08230C9F0833061F521C02BB3B1
:1013400081E090E002C0880F991F6A95E2F7282794
:101350002BBB089528B381E090E002C0880F991F4D
:101360006A95E2F7282728BB089525B381E090E02D
:1013700002C0880F991F6A95E2F7282725BB0895B8
:1013800022B381E090E002C0880F991F6A95E2F7CE
:10139000282722BB08953F983E9A3D98329A319A69
:1013A000309835983398379A089597B18770907E22
:1013B000892B87B9369A349BFECF349A24B135B144
:1013C000C901089580E060E040E00E94CF0880E01D
:1013D00061E040E00E94CF0880E063E040E00E94CE
:1013E000CF0880E062E040E00E94CF080895AF920D
:1013F000BF92CF92DF92EF92FF920F931F935B0108
:101400006C0180E060E040E00E94CF0880E061E095
:1014100040E00E94CF0880E063E040E00E94CF08F7
:1014200080E062E041E00E94CF08C601B50120E003
:1014300030E04AEF54E40E941F027B018C0120E05F
:1014400030E040E85FE30E94790388231CF461E008
:1014500070E024C0C801B70120E03FEF4FE757E438
:101460000E9419031816B4F4C601B50120E030E05B
:1014700040E251E40E941F020E94490088EC90E083
:1014800005C0FC013197F1F761507040611571059D
:10149000C1F707C0C801B7010E944900CB010197FD
:1014A000F1F780E060E040E00E94CF0880E061E07A
:1014B00040E00E94CF0880E063E041E00E94CF0856
:1014C00080E062E040E00E94CF08C801B70120E060
:1014D00030E040E85FE30E94790388231CF461E078
:1014E00070E024C0C801B70120E03FEF4FE757E4A8
:1014F0000E9419031816B4F4C601B50120E030E0CB
:1015000040E251E40E941F020E94490088EC90E0F2
:1015100005C0FC013197F1F761507040611571050C
:10152000C1F707C0C801B7010E944900CB0101976C
:10153000F1F780E060E040E00E94CF0880E061E0E9
:1015400041E00E94CF0880E063E040E00E94CF08C5
:1015500080E062E040E00E94CF08C801B70120E0CF
:1015600030E040E85FE30E94790388231CF461E0E7
:1015700070E024C0C801B70120E03FEF4FE757E417
:101580000E9419031816B4F4C601B50120E030E03A
:1015900040E251E40E941F020E94490088EC90E062
:1015A00005C0FC013197F1F761507040611571057C
:1015B000C1F707C0C801B7010E944900CB010197DC
:1015C000F1F780E060E041E00E94CF0880E061E058
:1015D00040E00E94CF0880E063E040E00E94CF0836
:1015E00080E062E040E00E94CF081F910F91FF90E1
:1015F000EF90DF90CF90BF90AF900895AF92BF92E1
:10160000CF92DF92EF92FF920F931F935B016C01D9
:1016100080E060E041E00E94CF0880E061E040E0CF
:101620000E94CF0880E063E040E00E94CF0880E0A5
:1016300062E040E00E94CF08C601B50120E030E042
:101640004AEF54E40E941F027B018C0120E030E04D
:1016500040E85FE30E94790388231CF461E070E0B6
:1016600024C0C801B70120E03FEF4FE757E40E94D4
:1016700019031816B4F4C601B50120E030E040E2C9
:1016800051E40E941F020E94490088EC90E005C0CE
:10169000FC013197F1F76150704061157105C1F798
:1016A00007C0C801B7010E944900CB010197F1F7BB
:1016B00080E060E040E00E94CF0880E061E041E02F
:1016C0000E94CF0880E063E040E00E94CF0880E005
:1016D00062E040E00E94CF08C801B70120E030E09E
:1016E00040E85FE30E94790388231CF461E070E026
:1016F00024C0C801B70120E03FEF4FE757E40E9444
:1017000019031816B4F4C601B50120E030E040E238
:1017100051E40E941F020E94490088EC90E005C03D
:10172000FC013197F1F76150704061157105C1F707
:1017300007C0C801B7010E944900CB010197F1F72A
:1017400080E060E040E00E94CF0880E061E040E09F
:101750000E94CF0880E063E041E00E94CF0880E073
:1017600062E040E00E94CF08C801B70120E030E00D
:1017700040E85FE30E94790388231CF461E070E095
:1017800024C0C801B70120E03FEF4FE757E40E94B3
:1017900019031816B4F4C601B50120E030E040E2A8
:1017A00051E40E941F020E94490088EC90E005C0AD
:1017B000FC013197F1F76150704061157105C1F777
:1017C00007C0C801B7010E944900CB010197F1F79A
:1017D00080E060E040E00E94CF0880E061E040E00F
:1017E0000E94CF0880E063E040E00E94CF0880E0E4
:1017F00062E041E00E94CF08C801B70120E030E07C
:1018000040E85FE30E94790388231CF461E070E004
:1018100024C0C801B70120E03FEF4FE757E40E9422
:1018200019031816B4F4C601B50120E030E040E217
:1018300051E40E941F020E94490088EC90E005C01C
:10184000FC013197F1F76150704061157105C1F7E6
:1018500007C0C801B7010E944900CB010197F1F709
:101860001F910F91FF90EF90DF90CF90BF90AF90BE
:10187000089580E060E041E00E945C0880E061E063
:1018800041E00E945C0880E063E041E00E945C0867
:1018900080E062E041E00E945C08089580E06FEF24
:1018A0000E94730908958A3048F4E82FF0E0E8595F
:1018B000FF4F6081609580E00E947309089580E089
:1018C0006FEF0E94620908950F931F93182F80E015
:1018D00060E041E00E94CF0880E061E040E00E94CB
:1018E000CF0883E0612F0E94730980E062E041E04D
:1018F0000E94CF0800ED17E0C8010197F1F780E0E2
:1019000062E040E00E94CF08C8010197F1F71F9103
:101910000F9108958F929F92BF92CF92DF92EF9294
:10192000FF920F931F93DF93CF93CDB7DEB72A9724
:101930000FB6F894DEBF0FBECDBF6B017C01FE0178
:1019400031968AE0DF011D928A95E9F7BB244F01A9
:101950001BC084010B0D111DC701B6012AE030E048
:1019600040E050E00E94040E605DF8016083C70112
:10197000B6012AE030E040E050E00E94040EC901C8
:10198000DA016C017D01B3941C141D041E041F04B4
:1019900004F38AE0E82EF12CEC0EFD1ED7018C91A9
:1019A000882311F00E94640C0894E108F108EC16F9
:1019B000FD06A1F72A960FB6F894DEBF0FBECDBF85
:1019C000CF91DF911F910F91FF90EF90DF90CF901B
:1019D000BF909F908F9008951F93CF93DF93EC015A
:1019E00010E003C00E94640C1F5FFE01E10FF11DB7
:1019F00080818823B9F7DF91CF911F9108950F93CC
:101A00001F93182F80E060E040E00E94CF0880E044
:101A100061E040E00E94CF0883E0612F0E947309DB
:101A200080E062E041E00E94CF0800ED17E0C801CD
:101A30000197F1F780E062E040E00E94CF08C80122
:101A40000197F1F71F910F91089581E00E94FF0C1B
:101A50000895882319F0813051F405C0862F8058ED
:101A60000E94FF0C0895862F80540E94FF0C089559
:101A70000F931F9380E060E041E00E945C0880E0EB
:101A800061E041E00E945C0880E062E041E00E9489
:101A90005C0883E06FEF0E94620984EF91E028EC1C
:101AA00030E0F9013197F1F70197D9F788E30E9407
:101AB000FF0C00ED17E0C8010197F1F78CE00E94E0
:101AC000FF0CC8010197F1F781E00E94FF0C80EA4A
:101AD0009FE00197F1F786E00E94FF0C1F910F91A4
:101AE00008958F929F92BF92CF92DF92EF92FF92D2
:101AF0000F931F93CF93DF936C01EE24EA94C0E021
:101B0000D0E090E2892E9EE4992EBC2E81E06C2FCD
:101B100040E00E94CF0886010C0F1D1F84E0F82EC4
:101B200081E06F2D0E944209882359F481E06F2DD6
:101B30000E9442098823D1F3C4010197F1F7F8010B
:101B4000E080F3940D5F1F4FF8E0FF1649F781E046
:101B50006B2D41E00E94CF082196C330D105A9F634
:101B60008E2DDF91CF911F910F91FF90EF90DF901D
:101B7000CF90BF909F908F90089581E060E041E00A
:101B80000E945C0881E061E041E00E945C0881E025
:101B900062E041E00E945C0881E064E040E00E9475
:101BA0005C0881E065E040E00E945C0881E066E05E
:101BB00040E00E945C0881E067E040E00E945C0831
:101BC00081E060E041E00E94CF0881E061E041E017
:101BD0000E94CF0881E062E041E00E94CF0881E0EE
:101BE00064E041E00E94CF0881E065E041E00E94AE
:101BF000CF0881E066E041E00E94CF0881E067E025
:101C000041E00E94CF08089597FB092E05260ED0CB
:101C100057FD04D014D00AD0001C38F450954095DC
:101C2000309521953F4F4F4F5F4F0895F6F79095B0
:101C30008095709561957F4F8F4F9F4F0895A1E2DA
:101C40001A2EAA1BBB1BFD010DC0AA1FBB1FEE1F36
:101C5000FF1FA217B307E407F50720F0A21BB30B81
:101C6000E40BF50B661F771F881F991F1A9469F7FD
:101C700060957095809590959B01AC01BD01CF0159
:101C800008952F923F924F925F926F927F928F9220
:101C90009F92AF92BF92CF92DF92EF92FF920F93FB
:101CA0001F93CF93DF93CDB7DEB7CA1BDB0B0FB605
:101CB000F894DEBF0FBECDBF09942A8839884888C2
:101CC0005F846E847D848C849B84AA84B984C88458
:101CD000DF80EE80FD800C811B81AA81B981CE0F4F
:101CE000D11D0FB6F894DEBF0FBECDBFED01089534
:041CF000F894FFCF96
:101CF40000000000000000003F065B4F666D7D079A
:021D04007F6FEF
:00000001FF
