:100000000C942A000C94370A0C94600A0C94890A08
:100010000C9447000C9447000C94D4090C944700AE
:100020000C9447000C9447000C9483090C943209FB
:100030000C9447000C9447000C9447000C94470024
:100040000C9447000C9447000C9447000C94470014
:100050000C94470011241FBECFE5D8E0DEBFCDBF12
:1000600010E0A0E6B0E0E0E5F2E202C005900D92FB
:10007000AA3DB107D9F711E0AAEDB0E001C01D9289
:10008000A030B107E1F70E94AB070C9426110C9445
:100090000000EF92FF920F931F937B018C0120E0F1
:1000A00030E040E05FE40E94490388238CF0C801FF
:1000B000B70120E030E040E05FE40E94C1010E940F
:1000C000A9039B01AC01205030404040504806C07D
:1000D000C801B7010E94A9039B01AC01B901CA0183
:1000E0001F910F91FF90EF900895A0E0B0E0EBE733
:1000F000F0E00C94E610DC012B01FA019C919230A7
:1001000008F439C1EB018881823008F433C194309E
:1001100069F4843009F02FC111969C91119789815F
:10012000981709F428C1ABEBB0E025C1843009F47D
:1001300021C18230A9F4923009F01DC19A01AD01AC
:1001400088E0EA010990AE01E90109929E0181501F
:10015000C1F7E201898111969C918923818308C1AD
:10016000923009F407C112962D903C901397EB0141
:100170008A819B811496AD90BD90CD90DC901797AD
:10018000EC80FD800E811F819101281B390BB90184
:1001900037FF04C066277727621B730B6032710537
:1001A0000CF061C0121613066CF537014801062EDB
:1001B00004C096948794779467940A94D2F721E0C8
:1001C00030E040E050E004C0220F331F441F551FB1
:1001D0006A95D2F721503040404050402E213F21B7
:1001E00040235123211531054105510521F021E01E
:1001F00030E040E050E079018A01E628F72808293C
:1002000019293CC0232BD1F1260E371E350146019A
:10021000062E04C096948794779467940A94D2F734
:1002200021E030E040E050E004C0220F331F441FC3
:10023000551F6A95D2F721503040404050402A2146
:100240003B214C215D21211531054105510521F04E
:1002500021E030E040E050E059016A01A628B728CB
:10026000C828D9280BC0821593052CF01C01AA249C
:10027000BB24650103C0EE24FF24870111969C91E5
:10028000D20111968C91981709F445C0992339F041
:10029000A80197012A193B094C095D0906C0A6016E
:1002A00095012E193F09400B510B57FD08C01182D3
:1002B0003382228224833583468357831DC081E0A5
:1002C00081833382228288279927DC01821B930B4A
:1002D000A40BB50B84839583A683B7830DC0220F2F
:1002E000331F441F551F24833583468357838281E0
:1002F000938101979383828324813581468157813D
:10030000DA01C9010197A109B1098F5F9F4FAF4F72
:10031000BF4328F30BC0918333822282EA0CFB1C7B
:100320000C1D1D1DE482F5820683178383E0808304
:10033000248135814681578157FF1AC0C901AA27F8
:1003400097FDA095BA2F81709070A070B0705695EF
:10035000479537952795822B932BA42BB52B848318
:100360009583A683B7838281938101969383828349
:10037000DF0101C0D201CD01CDB7DEB7E2E10C94BF
:100380000211A0E2B0E0E7ECF1E00C94F210698316
:100390007A838B839C832D833E834F835887E9E048
:1003A000EE2EF12CEC0EFD1ECE010196B7010E943F
:1003B000D2048E010F5E1F4FCE010596B8010E9438
:1003C000D2048A8991E089278A8BC701B801AE01DE
:1003D000475E5F4F0E9475000E94FD03A096E6E015
:1003E0000C940E11A0E2B0E0E8EFF1E00C94F210F2
:1003F00069837A838B839C832D833E834F835887C5
:10040000F9E0EF2EF12CEC0EFD1ECE010196B701A6
:100410000E94D2048E010F5E1F4FCE010596B801D7
:100420000E94D204C701B801AE01475E5F4F0E942F
:1004300075000E94FD03A096E6E00C940E11A0E268
:10044000B0E0E5E2F2E00C94E61069837A838B83F6
:100450009C832D833E834F835887CE010196BE0136
:10046000675F7F4F0E94D204CE010596BE016F5E8A
:100470007F4F0E94D2049985923088F0898982301A
:10048000C8F0943019F4823051F404C0843029F457
:10049000923081F48BEB90E0C6C0923049F420E0BA
:1004A0009A858A89981321E02A87CE010996BBC0D4
:1004B000823049F420E09A858A89981321E02A8BBA
:1004C000CE014196B0C02D843E844F8458886D88FB
:1004D0007E888F88988CEE24FF248701AA24BB2471
:1004E000650140E050E060E070E0E0E0F0E0C10174
:1004F00081709070892BE9F0E60CF71C081D191D1E
:100500009A01AB012A0D3B1D4C1D5D1D80E090E062
:10051000A0E0B0E0E614F7040805190520F481E036
:1005200090E0A0E0B0E0BA01A901480F591F6A1F8E
:100530007B1FAA0CBB1CCC1CDD1C97FE08C081E0F5
:1005400090E0A0E0B0E0A82AB92ACA2ADB2A3196B6
:10055000E032F10549F0660C771C881C991C569412
:10056000479437942794C3CFFA85EA892B893C892D
:100570008B859C85280F391F2E5F3F4F17C0CA01FE
:1005800081709070892B61F016950795F794E79428
:1005900080E090E0A0E0B0E8E82AF92A0A2B1B2BC3
:1005A00076956795579547952F5F3F4F77FDE7CF36
:1005B0000CC0440F551F661F771F17FD4160EE0CDE
:1005C000FF1C001F111F21503040403090E05907A0
:1005D00090E0690790E4790760F32B8F3C8FDB0193
:1005E000CA018F779070A070B07080349105A1051A
:1005F000B10561F447FD0AC0E114F10401051105DC
:1006000029F0405C5F4F6F4F7F4F40781A8EFE1786
:1006100011F081E08A8F4D8F5E8F6F8F78A383E01A
:10062000898FCE0149960E94FD03A096E2E10C94C9
:100630000211A8E1B0E0EFE1F3E00C94F21069835D
:100640007A838B839C832D833E834F83588789E0F5
:10065000E82EF12CEC0EFD1ECE010196B7010E9492
:10066000D2048E010F5E1F4FCE010596B8010E9485
:10067000D2048985823040F08989823028F0C70110
:10068000B8010E944A0501C08FEF6896E6E00C941D
:100690000E11A8E1B0E0EFE4F3E00C94F2106983EE
:1006A0007A838B839C832D833E834F83588789E095
:1006B000E82EF12CEC0EFD1ECE010196B7010E9432
:1006C000D2048E010F5E1F4FCE010596B8010E9425
:1006D000D2048985823040F08989823028F0C701B0
:1006E000B8010E944A0501C08FEF6896E6E00C94BD
:1006F0000E11A8E1B0E0EFE7F3E00C94F21069838B
:100700007A838B839C832D833E834F83588789E034
:10071000E82EF12CEC0EFD1ECE010196B7010E94D1
:10072000D2048E010F5E1F4FCE010596B8010E94C4
:10073000D2048985823040F08989823028F0C7014F
:10074000B8010E944A0501C081E06896E6E00C9479
:100750000E11ACE0B0E0EFEAF3E00C94F610698320
:100760007A838B839C83CE010196BE016B5F7F4FA2
:100770000E94D2048D81823061F1823050F1843048
:1007800021F48E81882351F12EC02F81388537FDC9
:1007900020C06E812F3131051CF06623F9F023C093
:1007A0008EE190E0821B930B29853A854B855C8511
:1007B00004C056954795379527958A95D2F76623B5
:1007C000B1F050954095309521953F4F4F4F5F4F79
:1007D0000EC020E030E040E050E009C02FEF3FEFD6
:1007E0004FEF5FE704C020E030E040E050E8B9019F
:1007F000CA012C96E2E00C941211DF92EF92FF9264
:100800000F931F93FC01E480F58006811781D1804E
:100810008081823048F480E090E0A0E1B0E0E82AF6
:10082000F92A0A2B1B2BA5C0843009F49FC0823003
:1008300021F4EE24FF24870105C0E114F104010531
:10084000110519F4E0E0F0E096C0628173819FEF3A
:10085000623879070CF05BC022E83FEF261B370BAC
:100860002A3131052CF020E030E040E050E02AC091
:10087000B801A701022E04C0769567955795479554
:100880000A94D2F781E090E0A0E0B0E004C0880FC5
:10089000991FAA1FBB1F2A95D2F70197A109B10979
:1008A0008E219F21A023B1230097A105B10521F03E
:1008B00081E090E0A0E0B0E09A01AB01282B392B59
:1008C0004A2B5B2BDA01C9018F779070A070B07052
:1008D00080349105A105B10539F427FF09C0205CDA
:1008E0003F4F4F4F5F4F04C0215C3F4F4F4F5F4F13
:1008F000E0E0F0E02030A0E03A07A0E04A07A0E402
:100900005A0710F0E1E0F0E079018A0127C0603871
:10091000710564F5FB01E158FF4FD801C7018F77DE
:100920009070A070B07080349105A105B10539F4C4
:10093000E7FE0DC080E490E0A0E0B0E004C08FE3EB
:1009400090E0A0E0B0E0E80EF91E0A1F1B1F17FFA1
:1009500005C016950795F794E794319687E01695AC
:100960000795F794E7948A95D1F705C0EE24FF2404
:100970008701EFEFF0E06E2F679566276795902F60
:100980009F77D794DD24D7948E2F8695492F462BB9
:10099000582F5D29B701CA011F910F91FF90EF9069
:1009A000DF900895FC01DB01408151812281622F9B
:1009B0006F7770E0221F2227221F9381892F880FD3
:1009C000822B282F30E0991F9927991F11969C930D
:1009D000119721153105A9F54115510561057105DD
:1009E00011F482E037C082E89FEF13969C938E93B8
:1009F00012979A01AB0167E0220F331F441F551F66
:100A00006A95D1F783E08C930DC0220F331F441FEA
:100A1000551F12968D919C911397019713969C9355
:100A20008E931297203080E0380780E0480780E4FA
:100A3000580758F314962D933D934D935C93179755
:100A400008952F3F310579F4411551056105710570
:100A500019F484E08C93089564FF03C081E08C93C3
:100A600012C01C9210C02F57304013963C932E9307
:100A7000129783E08C9387E0440F551F661F771F02
:100A80008A95D1F7706414964D935D936D937C9322
:100A9000179708951F93DC01FB019C91923008F495
:100AA00047C08081823008F443C0943051F41196DD
:100AB0001C91843099F58181682F70E0611B710968
:100AC0003FC0843021F0923031F48230B9F181811D
:100AD000882389F12DC011961C9111978230F1F075
:100AE00081811817D9F412962D913C911397828128
:100AF00093818217930794F028173907BCF0149656
:100B00008D919D910D90BC91A02D248135814681C0
:100B10005781281739074A075B0718F4112341F05A
:100B20000AC082179307A407B50740F4112319F0F0
:100B300061E070E005C06FEF7FEF02C060E070E041
:100B4000CB011F9108950E94840F80E060E00E9415
:100B5000880F80E690E00E944B0F80E066E00E94E4
:100B6000880F84E690E00E944B0F089583E067E0D1
:100B700040E00E942E0B089583E067E041E00E9470
:100B80002E0B08950F931F93182F062F642F40E00C
:100B90000E942E0B812F602F40E00E942E0B1F9190
:100BA0000F9108950F931F93182F042F41E00E9477
:100BB0002E0B812F602F40E00E942E0B1F910F9172
:100BC00008950F931F93182F062F642F41E00E9462
:100BD0002E0B812F602F40E00E942E0B1F910F9152
:100BE000089580E00E94340C9C019093DF00809374
:100BF000DE0083E02032380758F18091DA00882344
:100C000039F56BE00E94880F89E690E00E944B0F57
:100C100080E062E043E00E94E10588E893E128EC8F
:100C200030E0F9013197F1F70197D9F780E062E000
:100C300043E00E94C20588E893E128EC30E0F90126
:100C40003197F1F70197D9F781E08093DA000895A1
:100C50002C52314050F58091DA00813031F580E03E
:100C60006BE00E94880F8BE690E00E944B0F80E0C3
:100C700062E043E00E94D20588E893E128EC30E08E
:100C8000F9013197F1F70197D9F780E062E043E08D
:100C90000E94C20588E893E128EC30E0F901319721
:100CA000F1F70197D9F71092DA00089581E060E03A
:100CB00070E00E94B30808959DE7899FC001112448
:100CC00064EB70E00E94961063587F4F81E00E94B1
:100CD000B3080895CF93DF9381E00E94340CA0E025
:100CE000B0E0BC01CD0128E833E140E050E00E94D3
:100CF0006310DC01CB012AE0B695A79597958795FF
:100D00002A95D1F76AE070E00E948210EB01CB01D6
:100D10004E974E9760F58091E200882341F583E07D
:100D200067E040E00E942E0B80E064E00E94880FA4
:100D300089E690E00E944B0F83E067E041E00E946B
:100D40002E0B84EF91E028EC30E0F9013197F1F7B8
:100D50000197D9F783E067E040E00E942E0B81E025
:100D60008093E20066E047E00E94E10522C0CE31B8
:100D7000D105F8F48091E200813009F044C083E0AD
:100D800067E040E00E942E0B81E060E070E00E948E
:100D9000B30880E064E00E94880F8BE690E00E9438
:100DA0004B0F1092E20080E066E047E00E94C2052F
:100DB0002AC0ED9740F10E94840F80E060E00E941D
:100DC000880F8DE690E00E944B0F81E060E00E946A
:100DD000880F85E790E00E944B0F80E066E047E0D7
:100DE0000E94C2058AE50E945C0683E067E041E05C
:100DF0000E942E0B80E064E041E00E942E0B81E017
:100E00008093E20005C080E064E040E00E942E0B89
:100E10000E94A305DF91CF910895EF92FF920F9367
:100E20001F93DF93CF9300D000D00F92CDB7DEB7E2
:100E30000E94840F80E060E00E94880F84E890E0C8
:100E40000E944B0F88E893E128EC30E0F9013197DC
:100E5000F1F70197D9F781E060E00E94880F81E9FE
:100E600090E00E944B0F88E893E128EC30E0F90114
:100E70003197F1F70197D9F70E94840F80E060E085
:100E80000E94880F80EA90E00E944B0F81E060E0B2
:100E90000E94880F0BEF10E038ECE32EF12C83EC6E
:100EA00090E00E94D00F8F3FD1F3F80180830E9421
:100EB000C30E88EE93E0F7013197F1F70197D9F768
:100EC0008AE20E94C30E0F5F1F4FF0E00F3F1F0723
:100ED00031F7F801108288EB9BE028EC30E0F90153
:100EE0003197F1F70197D9F7DE011196E6EBF0E0C3
:100EF00085E001900D928150E1F70E94840F80E01F
:100F000060E00E94880F8BEF90E0BE016F5F7F4F23
:100F10000E941D11009721F481E08093E1000FC031
:100F20008CEA90E00E944B0F88EB9BE028EC30E0CD
:100F3000F9013197F1F70197D9F70E940D070F904A
:100F40000F900F900F900F90CF91DF911F910F9105
:100F5000FF90EF900895CF93DF930E941C0A0E94A8
:100F6000240A0E94E9080E942A0C0E9422080E947A
:100F7000970F0E941C1080E061E040E00E94BB0AD5
:100F800080E060E040E00E94BB0A80E065E040E075
:100F90000E94BB0A80E062E041E00E94BB0A80E060
:100FA00063E041E00E94BB0A80E066E041E00E940D
:100FB000BB0A80E067E041E00E94BB0A83E067E093
:100FC00041E00E94BB0A80E064E041E00E94BB0A6D
:100FD00083E065E041E00E94BB0A80E065E041E01B
:100FE0000E942E0B81E00E9499080E940D070E942A
:100FF000A305C8ECD0E00E94F1050E946A0680E0DB
:1010000065E00E94A10B8823B1F78AE50E945C0687
:1010100088E893E1FE013197F1F70197D9F781E074
:1010200060E070E00E94B308E6CF91B58770987FCA
:10103000892B81BD81B5886081BD089588E181BD1E
:1010400011BC089588E18AB986E880BD83E389B937
:1010500010BC08955D9BFECF8CB908955F9BFECFB9
:101060008CB1089586B78B7F86BF8AE080B90895DA
:1010700084EA86BF06B607FEFDCF81B1887F08955A
:1010800084EA86BF06B607FEFDCF81B1887F08954A
:10109000880F862B83B984E886BF86B78F7D86BF8D
:1010A00006B607FEFDCF81B1887F089583B984E835
:1010B00086BF06B607FEFDCF81B1887F0895FC018B
:1010C000662339F0613051F484E886BF86B78064C6
:1010D00004C084E886BF86B78F7B86BF06B607FE4E
:1010E000FDCF83B1808381B1887F089584E986BF75
:1010F00081B1887F089581B1887F08954093E5008C
:101100005093E6006093E7007093E8009093F0003E
:101110008093EF0008959093EA008093E900409354
:10112000E5005093E6006093E7007093E8002CBF61
:101130000895882329F483B7887F826083BF089548
:10114000823021F48EB5887F82608EBD0895882319
:1011500021F483B7887F83BF0895823019F48EB558
:10116000887F8EBD0895882319F0813029F402C04C
:101170006CBF08957BBD6ABD08959093E400809391
:10118000E300089526B537B5C9010895882319F0FD
:10119000813041F404C08EB580648EBD08958EB553
:1011A0008F7B8EBD0895882361F4662319F0623029
:1011B00079F403C089B7816002C089B7826089BFB2
:1011C0000895823029F4662319F489B7806289BFB3
:1011D000089583B7806483BF83B7886083BF80E04E
:1011E00063E00E94D30883B78B7F83BF83B78D7F73
:1011F00083BF83B78E7F83BF8FB580688FBD8FB568
:101200008F7B8FBD8FB582608FBD8FB58E7F8FBD79
:101210008EB588608EBD8EB580618EBD8EB58160C5
:101220008EBD8EB582608EBD8EB58B7F8EBD83ECFC
:1012300099E097BD86BD0895882361F4662319F06F
:10124000623079F403C089B78E7F02C089B78D7F81
:1012500089BF0895823029F4662319F489B78F7DF8
:1012600089BF08951F920F920FB60F9211242F93EA
:101270003F934F935F936F937F938F939F93AF931E
:10128000BF93EF93FF938091F1009091F200A091B2
:10129000F300B091F4000196A11DB11D8093F100FF
:1012A0009093F200A093F300B093F4002091E50036
:1012B0003091E6004091E7005091E80082179307D3
:1012C000A407B50779F4E091EF00F091F0003097B2
:1012D00049F009951092F1001092F2001092F3007B
:1012E0001092F400FF91EF91BF91AF919F918F9178
:1012F0007F916F915F914F913F912F910F900FBE12
:101300000F901F9018951F920F920FB60F921124F5
:101310002F933F934F935F936F937F938F939F93FD
:10132000AF93BF93EF93FF938091EB009091EC000C
:10133000A091ED00B091EE000196A11DB11D80932A
:10134000EB009093EC00A093ED00B093EE002091A1
:10135000E5003091E6004091E7005091E8008217E7
:101360009307A407B50779F4E091E900F091EA004A
:10137000309749F009951092EB001092EC00109212
:10138000ED001092EE00FF91EF91BF91AF919F9110
:101390008F917F916F915F914F913F912F910F901E
:1013A0000FBE0F901F9018951F920F920FB60F92BD
:1013B00011242F933F934F935F936F937F938F935A
:1013C0009F93AF93BF93EF93FF93E091E300F0916E
:1013D000E400309709F00995FF91EF91BF91AF912B
:1013E0009F918F917F916F915F914F913F912F913D
:1013F0000F900FBE0F901F9018958FB9779BFECF5F
:101400008FB108958FB9779BFECF0895779BFECF5C
:101410008FB1089581E065E040E00E94BB0A81E061
:1014200067E040E00E94BB0A81E066E041E00E9484
:10143000BB0A8AE58DB908958FB780688FBF08957C
:101440008FB78F778FBF089585B7816085BF85B7C8
:10145000826085BF8BB780648BBF0895E62FF0E074
:10146000EE0FFF1FEB50FF4F9183808308951F9273
:101470000F920FB60F9211242F933F934F935F93C8
:101480006F937F938F939F93AF93BF93EF93FF934C
:10149000E091F500F091F600309709F00995FF9181
:1014A000EF91BF91AF919F918F917F916F915F91DC
:1014B0004F913F912F910F900FBE0F901F90189555
:1014C0001F920F920FB60F9211242F933F934F93B9
:1014D0005F936F937F938F939F93AF93BF93EF939C
:1014E000FF93E091F700F091F800309709F009952B
:1014F000FF91EF91BF91AF919F918F917F916F91EC
:101500005F914F913F912F910F900FBE0F901F90C1
:1015100018951F920F920FB60F9211242F933F939D
:101520004F935F936F937F938F939F93AF93BF93EB
:10153000EF93FF93E091F900F091FA00309709F0F2
:101540000995FF91EF91BF91AF919F918F917F91FD
:101550006F915F914F913F912F910F900FBE0F9020
:101560001F9018951ABA17BA14BA11BA1BBA18BA3A
:1015700015BA12BA08954130B1F5813099F0813031
:1015800030F08230D1F0833009F067C021C02AB337
:1015900081E090E002C0880F991F6A95E2F7282B3E
:1015A0002ABB089527B381E090E002C0880F991FFD
:1015B0006A95E2F7282B27BB089524B381E090E0D9
:1015C00002C0880F991F6A95E2F7282B24BB089563
:1015D00021B381E090E002C0880F991F6A95E2F77D
:1015E000282B21BB08954423C1F5813099F0813027
:1015F00028F08230D9F0833081F524C02AB381E00D
:1016000090E002C0880F991F6A95E2F780958223C7
:101610008ABB089527B381E090E002C0880F991F2C
:101620006A95E2F78095822387BB089524B381E011
:1016300090E002C0880F991F6A95E2F78095822397
:1016400084BB089521B381E090E002C0880F991F08
:101650006A95E2F78095822381BB08954130B1F508
:10166000813099F0813030F08230D1F0833009F050
:1016700067C021C02BB381E090E002C0880F991FA2
:101680006A95E2F7282B2BBB089528B381E090E000
:1016900002C0880F991F6A95E2F7282B28BB08958E
:1016A00025B381E090E002C0880F991F6A95E2F7A8
:1016B000282B25BB089522B381E090E002C0880F5B
:1016C000991F6A95E2F7282B22BB08954423C1F5A0
:1016D000813099F0813028F08230D9F0833081F563
:1016E00024C02BB381E090E002C0880F991F6A9557
:1016F000E2F7809582238BBB089528B381E090E0C8
:1017000002C0880F991F6A95E2F78095822388BBF3
:10171000089525B381E090E002C0880F991F6A9573
:10172000E2F78095822385BB089522B381E090E0A3
:1017300002C0880F991F6A95E2F78095822382BBC9
:101740000895813051F0813030F0823041F08330A3
:1017500079F080E0089589B303C086B301C083B3F4
:1017600090E002C0959587956A95E2F7817008959B
:1017700080B390E002C0959587956A95E2F78170F5
:101780000895813049F0813028F0823039F083307B
:1017900041F406C06ABB089567BB089564BB089511
:1017A00061BB0895813049F0813028F0823039F0F2
:1017B000833041F406C06BBB089568BB089565BBD8
:1017C000089562BB0895813051F0813030F082304D
:1017D00041F0833041F080E0089589B3089586B3E5
:1017E000089583B3089580B30895813091F08130D6
:1017F00028F08230C9F0833061F521C02BB381E03D
:1018000090E002C0880F991F6A95E2F728272BBB4A
:10181000089528B381E090E002C0880F991F6A956F
:10182000E2F7282728BB089525B381E090E002C0A5
:10183000880F991F6A95E2F7282725BB089522B3E0
:1018400081E090E002C0880F991F6A95E2F728278F
:1018500022BB08953F983E9A3D98329A319A30982B
:1018600035983398379A089597B18770907E892B71
:1018700087B9369A349BFECF349A24B135B1C90169
:10188000089580E060E040E00E942E0B80E061E07F
:1018900040E00E942E0B80E063E040E00E942E0BAF
:1018A00080E062E040E00E942E0B0895AF92BF926C
:1018B000CF92DF92EF92FF920F931F935B016C0127
:1018C00080E060E040E00E942E0B80E061E040E0BC
:1018D0000E942E0B80E063E040E00E942E0B80E02F
:1018E00062E041E00E942E0BC601B50120E030E02D
:1018F0004AEF54E40E941F027B018C0120E030E09B
:1019000040E85FE30E94790388231CF461E070E003
:1019100024C0C801B70120E03FEF4FE757E40E9421
:1019200019031816B4F4C601B50120E030E040E216
:1019300051E40E941F020E94490088EC90E005C01B
:10194000FC013197F1F76150704061157105C1F7E5
:1019500007C0C801B7010E944900CB010197F1F708
:1019600080E060E040E00E942E0B80E061E040E01B
:101970000E942E0B80E063E041E00E942E0B80E08D
:1019800062E040E00E942E0BC801B70120E030E089
:1019900040E85FE30E94790388231CF461E070E073
:1019A00024C0C801B70120E03FEF4FE757E40E9491
:1019B00019031816B4F4C601B50120E030E040E286
:1019C00051E40E941F020E94490088EC90E005C08B
:1019D000FC013197F1F76150704061157105C1F755
:1019E00007C0C801B7010E944900CB010197F1F778
:1019F00080E060E040E00E942E0B80E061E041E08A
:101A00000E942E0B80E063E040E00E942E0B80E0FD
:101A100062E040E00E942E0BC801B70120E030E0F8
:101A200040E85FE30E94790388231CF461E070E0E2
:101A300024C0C801B70120E03FEF4FE757E40E9400
:101A400019031816B4F4C601B50120E030E040E2F5
:101A500051E40E941F020E94490088EC90E005C0FA
:101A6000FC013197F1F76150704061157105C1F7C4
:101A700007C0C801B7010E944900CB010197F1F7E7
:101A800080E060E041E00E942E0B80E061E040E0F9
:101A90000E942E0B80E063E040E00E942E0B80E06D
:101AA00062E040E00E942E0B1F910F91FF90EF909B
:101AB000DF90CF90BF90AF900895AF92BF92CF923A
:101AC000DF92EF92FF920F931F935B016C0180E016
:101AD00060E041E00E942E0B80E061E040E00E9467
:101AE0002E0B80E063E040E00E942E0B80E062E07D
:101AF00040E00E942E0BC601B50120E030E04AEF25
:101B000054E40E941F027B018C0120E030E040E899
:101B10005FE30E94790388231CF461E070E024C035
:101B2000C801B70120E03FEF4FE757E40E941903D7
:101B30001816B4F4C601B50120E030E040E251E4EB
:101B40000E941F020E94490088EC90E005C0FC0141
:101B50003197F1F76150704061157105C1F707C009
:101B6000C801B7010E944900CB010197F1F780E05D
:101B700060E040E00E942E0B80E061E041E00E94C6
:101B80002E0B80E063E040E00E942E0B80E062E0DC
:101B900040E00E942E0BC801B70120E030E040E891
:101BA0005FE30E94790388231CF461E070E024C0A5
:101BB000C801B70120E03FEF4FE757E40E94190347
:101BC0001816B4F4C601B50120E030E040E251E45B
:101BD0000E941F020E94490088EC90E005C0FC01B1
:101BE0003197F1F76150704061157105C1F707C079
:101BF000C801B7010E944900CB010197F1F780E0CD
:101C000060E040E00E942E0B80E061E040E00E9436
:101C10002E0B80E063E041E00E942E0B80E062E04A
:101C200040E00E942E0BC801B70120E030E040E800
:101C30005FE30E94790388231CF461E070E024C014
:101C4000C801B70120E03FEF4FE757E40E941903B6
:101C50001816B4F4C601B50120E030E040E251E4CA
:101C60000E941F020E94490088EC90E005C0FC0120
:101C70003197F1F76150704061157105C1F707C0E8
:101C8000C801B7010E944900CB010197F1F780E03C
:101C900060E040E00E942E0B80E061E040E00E94A6
:101CA0002E0B80E063E040E00E942E0B80E062E0BB
:101CB00041E00E942E0BC801B70120E030E040E86F
:101CC0005FE30E94790388231CF461E070E024C084
:101CD000C801B70120E03FEF4FE757E40E94190326
:101CE0001816B4F4C601B50120E030E040E251E43A
:101CF0000E941F020E94490088EC90E005C0FC0190
:101D00003197F1F76150704061157105C1F707C057
:101D1000C801B7010E944900CB010197F1F71F915B
:101D20000F91FF90EF90DF90CF90BF90AF9008950C
:101D300080E060E041E00E94BB0A80E061E041E0B9
:101D40000E94BB0A80E063E041E00E94BB0A80E0A1
:101D500062E041E00E94BB0A089580E06FEF0E94BC
:101D6000D20B08958A3048F4E82FF0E0E153FF4F9A
:101D70006081609580E00E94D20B089580E06FEF53
:101D80000E94C10B08950F931F93182F83E063E007
:101D900041E00E942E0B83E064E040E00E942E0BA5
:101DA00082E0612F0E94D20B83E066E041E00E9456
:101DB0002E0B00ED17E0C8010197F1F783E066E014
:101DC00040E00E942E0BC8010197F1F71F910F917F
:101DD00008958F929F92BF92CF92DF92EF92FF92DF
:101DE0000F931F93DF93CF93CDB7DEB72A970FB62C
:101DF000F894DEBF0FBECDBF6B017C01FE013196B2
:101E00008AE0DF011D928A95E9F7BB244F011BC0D0
:101E100084010B0D111DC701B6012AE030E040E03E
:101E200050E00E94A910605DF8016083C701B6010F
:101E30002AE030E040E050E00E94A910C901DA0138
:101E40006C017D01B3941C141D041E041F0404F3D3
:101E50008AE0E82EF12CEC0EFD1ED7018C91882330
:101E600011F00E94C30E0894E108F108EC16FD067B
:101E7000A1F72A960FB6F894DEBF0FBECDBFCF9163
:101E8000DF911F910F91FF90EF90DF90CF90BF9067
:101E90009F908F9008951F93CF93DF93EC0110E0F4
:101EA00003C00E94C30E1F5FFE01E10FF11D808180
:101EB0008823B9F7DF91CF911F9108950F931F9356
:101EC000182F83E063E040E00E942E0B83E064E083
:101ED00040E00E942E0B82E0612F0E94D20B83E033
:101EE00066E041E00E942E0B00ED17E0C80101976B
:101EF000F1F783E066E040E00E942E0BC8010197F5
:101F0000F1F71F910F91089581E00E945E0F0895EF
:101F1000882319F0813051F405C0862F80580E9423
:101F20005E0F0895862F80540E945E0F08950F93D0
:101F30001F9383E063E041E00E94BB0A83E064E01A
:101F400041E00E94BB0A83E066E041E00E94BB0AD8
:101F500082E06FEF0E94C10B84EF91E028EC30E04B
:101F6000F9013197F1F70197D9F788E30E945E0FE5
:101F700000ED17E0C8010197F1F78CE00E945E0FB9
:101F8000C8010197F1F781E00E945E0F80EA9FE0AF
:101F90000197F1F786E00E945E0F1F910F9108955F
:101FA0008F929F92BF92CF92DF92EF92FF920F9308
:101FB0001F93CF93DF936C01EE24EA94C0E0D0E04E
:101FC00090E2892E9EE4992EBC2E81E06C2F40E099
:101FD0000E942E0B86010C0F1D1F84E0F82E81E05D
:101FE0006F2D0E94A10B882359F481E06F2D0E9470
:101FF000A10B8823D1F3C4010197F1F7F801E08028
:10200000F3940D5F1F4FF8E0FF1649F781E06B2D49
:1020100041E00E942E0B2196C330D105A9F68E2DEA
:10202000DF91CF911F910F91FF90EF90DF90CF90B4
:10203000BF909F908F90089581E060E041E00E9402
:10204000BB0A81E061E041E00E94BB0A81E062E0FE
:1020500041E00E94BB0A81E064E040E00E94BB0ACC
:1020600081E065E040E00E94BB0A81E066E040E07C
:102070000E94BB0A81E067E040E00E94BB0A81E069
:1020800060E041E00E942E0B81E061E041E00E94AF
:102090002E0B81E062E041E00E942E0B81E064E0C3
:1020A00041E00E942E0B81E065E041E00E942E0B92
:1020B00081E066E041E00E942E0B81E067E041E0B4
:1020C0000E942E0B0895629FD001739FF001829FA2
:1020D000E00DF11D649FE00DF11D929FF00D839FB7
:1020E000F00D749FF00D659FF00D9927729FB00D54
:1020F000E11DF91F639FB00DE11DF91FBD01CF0167
:1021000011240895AA1BBB1B51E107C0AA1FBB1FC6
:10211000A617B70710F0A61BB70B881F991F5A9573
:10212000A9F780959095BC01CD01089597FB092EE4
:1021300007260AD077FD04D0E5DF06D000201AF488
:10214000709561957F4F0895F6F7909581959F4F13
:10215000089597FB092E05260ED057FD04D014D004
:102160000AD0001C38F450954095309521953F4F8A
:102170004F4F5F4F0895F6F7909580957095619554
:102180007F4F8F4F9F4F0895A1E21A2EAA1BBB1BB2
:10219000FD010DC0AA1FBB1FEE1FFF1FA217B30733
:1021A000E407F50720F0A21BB30BE40BF50B661F49
:1021B000771F881F991F1A9469F76095709580950D
:1021C00090959B01AC01BD01CF0108952F923F92E4
:1021D0004F925F926F927F928F929F92AF92BF9237
:1021E000CF92DF92EF92FF920F931F93CF93DF93E3
:1021F000CDB7DEB7CA1BDB0B0FB6F894DEBF0FBE40
:10220000CDBF09942A88398848885F846E847D848C
:102210008C849B84AA84B984C884DF80EE80FD808E
:102220000C811B81AA81B981CE0FD11D0FB6F89404
:10223000DEBF0FBECDBFED010895FB01DC018D9126
:10224000019080190110D9F3990B0895F894FFCFEC
:1022500046414E0057494E44004F004300616C65B3
:102260007274212100436C6F73696E672053797318
:1022700074656D0057656C636F6D6520486F6D65A3
:1022800000456E74657220546865206B65793A006C
:10229000544845204B45592049533A0077726F6E98
:1022A00067206B6579003132333400000000000094
:1022B0000000003738393132333435362A30233F85
:0A22C000065B4F666D7D077F6F001F
:00000001FF
