:100000000C942A000C943D080C9466080C948F08FC
:100010000C9447000C9447000C94DA070C944700AA
:100020000C9447000C9447000C9489070C943807F3
:100030000C9447000C9447000C9447000C94470024
:100040000C9447000C9447000C9447000C94470014
:100050000C94470011241FBECFE5D8E0DEBFCDBF12
:1000600010E0A0E6B0E0E4E2FEE102C005900D92EF
:10007000A237B107D9F710E0A2E7B0E001C01D92A6
:10008000A239B107E1F70E9445060C94100F0C94B9
:100090000000EF92FF920F931F937B018C0120E0F1
:1000A00030E040E05FE40E94490388238CF0C801FF
:1000B000B70120E030E040E05FE40E94C1010E940F
:1000C000A9039B01AC01205030404040504806C07D
:1000D000C801B7010E94A9039B01AC01B901CA0183
:1000E0001F910F91FF90EF900895A0E0B0E0EBE733
:1000F000F0E00C94D90EDC012B01FA019C919230B6
:1001000008F439C1EB018881823008F433C194309E
:1001100069F4843009F02FC111969C91119789815F
:10012000981709F428C1A0E6B0E025C1843009F48D
:1001300021C18230A9F4923009F01DC19A01AD01AC
:1001400088E0EA010990AE01E90109929E0181501F
:10015000C1F7E201898111969C918923818308C1AD
:10016000923009F407C112962D903C901397EB0141
:100170008A819B811496AD90BD90CD90DC901797AD
:10018000EC80FD800E811F819101281B390BB90184
:1001900037FF04C066277727621B730B6032710537
:1001A0000CF061C0121613066CF537014801062EDB
:1001B00004C096948794779467940A94D2F721E0C8
:1001C00030E040E050E004C0220F331F441F551FB1
:1001D0006A95D2F721503040404050402E213F21B7
:1001E00040235123211531054105510521F021E01E
:1001F00030E040E050E079018A01E628F72808293C
:1002000019293CC0232BD1F1260E371E350146019A
:10021000062E04C096948794779467940A94D2F734
:1002200021E030E040E050E004C0220F331F441FC3
:10023000551F6A95D2F721503040404050402A2146
:100240003B214C215D21211531054105510521F04E
:1002500021E030E040E050E059016A01A628B728CB
:10026000C828D9280BC0821593052CF01C01AA249C
:10027000BB24650103C0EE24FF24870111969C91E5
:10028000D20111968C91981709F445C0992339F041
:10029000A80197012A193B094C095D0906C0A6016E
:1002A00095012E193F09400B510B57FD08C01182D3
:1002B0003382228224833583468357831DC081E0A5
:1002C00081833382228288279927DC01821B930B4A
:1002D000A40BB50B84839583A683B7830DC0220F2F
:1002E000331F441F551F24833583468357838281E0
:1002F000938101979383828324813581468157813D
:10030000DA01C9010197A109B1098F5F9F4FAF4F72
:10031000BF4328F30BC0918333822282EA0CFB1C7B
:100320000C1D1D1DE482F5820683178383E0808304
:10033000248135814681578157FF1AC0C901AA27F8
:1003400097FDA095BA2F81709070A070B0705695EF
:10035000479537952795822B932BA42BB52B848318
:100360009583A683B7838281938101969383828349
:10037000DF0101C0D201CD01CDB7DEB7E2E10C94BF
:10038000F50EA0E2B0E0E7ECF1E00C94E50E698335
:100390007A838B839C832D833E834F835887E9E048
:1003A000EE2EF12CEC0EFD1ECE010196B7010E943F
:1003B000D2048E010F5E1F4FCE010596B8010E9438
:1003C000D2048A8991E089278A8BC701B801AE01DE
:1003D000475E5F4F0E9475000E94FD03A096E6E015
:1003E0000C94010FA0E2B0E0E8EFF1E00C94E50E10
:1003F00069837A838B839C832D833E834F835887C5
:10040000F9E0EF2EF12CEC0EFD1ECE010196B701A6
:100410000E94D2048E010F5E1F4FCE010596B801D7
:100420000E94D204C701B801AE01475E5F4F0E942F
:1004300075000E94FD03A096E6E00C94010FA0E277
:10044000B0E0E5E2F2E00C94D90E69837A838B8305
:100450009C832D833E834F835887CE010196BE0136
:10046000675F7F4F0E94D204CE010596BE016F5E8A
:100470007F4F0E94D2049985923088F0898982301A
:10048000C8F0943019F4823051F404C0843029F457
:10049000923081F480E690E0C6C0923049F420E0CA
:1004A0009A858A89981321E02A87CE010996BBC0D4
:1004B000823049F420E09A858A89981321E02A8BBA
:1004C000CE014196B0C02D843E844F8458886D88FB
:1004D0007E888F88988CEE24FF248701AA24BB2471
:1004E000650140E050E060E070E0E0E0F0E0C10174
:1004F00081709070892BE9F0E60CF71C081D191D1E
:100500009A01AB012A0D3B1D4C1D5D1D80E090E062
:10051000A0E0B0E0E614F7040805190520F481E036
:1005200090E0A0E0B0E0BA01A901480F591F6A1F8E
:100530007B1FAA0CBB1CCC1CDD1C97FE08C081E0F5
:1005400090E0A0E0B0E0A82AB92ACA2ADB2A3196B6
:10055000E032F10549F0660C771C881C991C569412
:10056000479437942794C3CFFA85EA892B893C892D
:100570008B859C85280F391F2E5F3F4F17C0CA01FE
:1005800081709070892B61F016950795F794E79428
:1005900080E090E0A0E0B0E8E82AF92A0A2B1B2BC3
:1005A00076956795579547952F5F3F4F77FDE7CF36
:1005B0000CC0440F551F661F771F17FD4160EE0CDE
:1005C000FF1C001F111F21503040403090E05907A0
:1005D00090E0690790E4790760F32B8F3C8FDB0193
:1005E000CA018F779070A070B07080349105A1051A
:1005F000B10561F447FD0AC0E114F10401051105DC
:1006000029F0405C5F4F6F4F7F4F40781A8EFE1786
:1006100011F081E08A8F4D8F5E8F6F8F78A383E01A
:10062000898FCE0149960E94FD03A096E2E10C94C9
:10063000F50EA8E1B0E0EFE1F3E00C94E50E69837C
:100640007A838B839C832D833E834F83588789E0F5
:10065000E82EF12CEC0EFD1ECE010196B7010E9492
:10066000D2048E010F5E1F4FCE010596B8010E9485
:10067000D2048985823040F08989823028F0C70110
:10068000B8010E944A0501C08FEF6896E6E00C941D
:10069000010FA8E1B0E0EFE4F3E00C94E50E69830C
:1006A0007A838B839C832D833E834F83588789E095
:1006B000E82EF12CEC0EFD1ECE010196B7010E9432
:1006C000D2048E010F5E1F4FCE010596B8010E9425
:1006D000D2048985823040F08989823028F0C701B0
:1006E000B8010E944A0501C08FEF6896E6E00C94BD
:1006F000010FA8E1B0E0EFE7F3E00C94E50E6983A9
:100700007A838B839C832D833E834F83588789E034
:10071000E82EF12CEC0EFD1ECE010196B7010E94D1
:10072000D2048E010F5E1F4FCE010596B8010E94C4
:10073000D2048985823040F08989823028F0C7014F
:10074000B8010E944A0501C081E06896E6E00C9479
:10075000010FACE0B0E0EFEAF3E00C94E90E69833E
:100760007A838B839C83CE010196BE016B5F7F4FA2
:100770000E94D2048D81823061F1823050F1843048
:1007800021F48E81882351F12EC02F81388537FDC9
:1007900020C06E812F3131051CF06623F9F023C093
:1007A0008EE190E0821B930B29853A854B855C8511
:1007B00004C056954795379527958A95D2F76623B5
:1007C000B1F050954095309521953F4F4F4F5F4F79
:1007D0000EC020E030E040E050E009C02FEF3FEFD6
:1007E0004FEF5FE704C020E030E040E050E8B9019F
:1007F000CA012C96E2E00C94050FDF92EF92FF9273
:100800000F931F93FC01E480F58006811781D1804E
:100810008081823048F480E090E0A0E1B0E0E82AF6
:10082000F92A0A2B1B2BA5C0843009F49FC0823003
:1008300021F4EE24FF24870105C0E114F104010531
:10084000110519F4E0E0F0E096C0628173819FEF3A
:10085000623879070CF05BC022E83FEF261B370BAC
:100860002A3131052CF020E030E040E050E02AC091
:10087000B801A701022E04C0769567955795479554
:100880000A94D2F781E090E0A0E0B0E004C0880FC5
:10089000991FAA1FBB1F2A95D2F70197A109B10979
:1008A0008E219F21A023B1230097A105B10521F03E
:1008B00081E090E0A0E0B0E09A01AB01282B392B59
:1008C0004A2B5B2BDA01C9018F779070A070B07052
:1008D00080349105A105B10539F427FF09C0205CDA
:1008E0003F4F4F4F5F4F04C0215C3F4F4F4F5F4F13
:1008F000E0E0F0E02030A0E03A07A0E04A07A0E402
:100900005A0710F0E1E0F0E079018A0127C0603871
:10091000710564F5FB01E158FF4FD801C7018F77DE
:100920009070A070B07080349105A105B10539F4C4
:10093000E7FE0DC080E490E0A0E0B0E004C08FE3EB
:1009400090E0A0E0B0E0E80EF91E0A1F1B1F17FFA1
:1009500005C016950795F794E794319687E01695AC
:100960000795F794E7948A95D1F705C0EE24FF2404
:100970008701EFEFF0E06E2F679566276795902F60
:100980009F77D794DD24D7948E2F8695492F462BB9
:10099000582F5D29B701CA011F910F91FF90EF9069
:1009A000DF900895FC01DB01408151812281622F9B
:1009B0006F7770E0221F2227221F9381892F880FD3
:1009C000822B282F30E0991F9927991F11969C930D
:1009D000119721153105A9F54115510561057105DD
:1009E00011F482E037C082E89FEF13969C938E93B8
:1009F00012979A01AB0167E0220F331F441F551F66
:100A00006A95D1F783E08C930DC0220F331F441FEA
:100A1000551F12968D919C911397019713969C9355
:100A20008E931297203080E0380780E0480780E4FA
:100A3000580758F314962D933D934D935C93179755
:100A400008952F3F310579F4411551056105710570
:100A500019F484E08C93089564FF03C081E08C93C3
:100A600012C01C9210C02F57304013963C932E9307
:100A7000129783E08C9387E0440F551F661F771F02
:100A80008A95D1F7706414964D935D936D937C9322
:100A9000179708951F93DC01FB019C91923008F495
:100AA00047C08081823008F443C0943051F41196DD
:100AB0001C91843099F58181682F70E0611B710968
:100AC0003FC0843021F0923031F48230B9F181811D
:100AD000882389F12DC011961C9111978230F1F075
:100AE00081811817D9F412962D913C911397828128
:100AF00093818217930794F028173907BCF0149656
:100B00008D919D910D90BC91A02D248135814681C0
:100B10005781281739074A075B0718F4112341F05A
:100B20000AC082179307A407B50740F4112319F0F0
:100B300061E070E005C06FEF7FEF02C060E070E041
:100B4000CB011F91089580E062E040E00E943409EB
:100B500080E063E040E00E943409089580E062E0B4
:100B600040E00E94340980E063E041E00E943409E3
:100B7000089580E062E041E00E94340980E063E093
:100B800040E00E943409089580E00E943A0A9C01E6
:100B9000909377008093760083E02032380760F0EE
:100BA00080917200882341F40E94B9050E94A30538
:100BB00081E08093720008952C5B324050F4809164
:100BC0007200813031F40E94AE050E94A30510929C
:100BD00072000895CF93DF9381E00E943A0AA0E06B
:100BE000B0E0BC01CD0128E833E140E050E00E94D4
:100BF000690EDC01CB012AE0B695A79597958795FC
:100C00002A95D1F76AE070E00E94880EEB01CB01D3
:100C10006AE070E00E94880E862F805D0E949B062D
:100C2000CE016AE070E00E94880E805D0E949B0603
:100C30008AE00E949B06CE014E974E9750F4809119
:100C40007900882331F40E94B90581E0809379000E
:100C500007C0CE31D10520F4109279000E94A3057F
:100C6000ED9758F081E08093730080E064E041E00C
:100C70000E9434090E94A30505C080E064E040E0C2
:100C80000E943409DF91CF910895CF93DF930E94A2
:100C900022080E942A080E940E070E94300A0E9421
:100CA000930680E061E040E00E94C10880E060E0DF
:100CB00040E00E94C10880E062E041E00E94C1087B
:100CC00080E063E041E00E94C10880E064E041E030
:100CD0000E94C1088AEE95E040ED57E060E070E0C8
:100CE0000E94A30680E00E94BE06C8ECD0E080917E
:100CF0007300882319F00E94A305F9CF88E893E1D7
:100D0000FE013197F1F70197D9F7F1CF91B58770CF
:100D1000987F892B81BD81B5886081BD089588E168
:100D200081BD11BC089588E18AB986E880BD83E35E
:100D300089B910BC08955D9BFECF8CB908955F9B67
:100D4000FECF8CB1089540937C0050937D0060935A
:100D50007E0070937F0090938700809386000895B3
:100D6000909381008093800040937C0050937D009D
:100D700060937E0070937F002CBF0895882329F430
:100D800083B7887F826083BF0895823021F48EB557
:100D9000887F82608EBD0895882321F483B7887F81
:100DA00083BF0895823019F48EB5887F8EBD089573
:100DB000882319F0813029F402C06CBF08957BBDEF
:100DC0006ABD089590937B0080937A00089526B5BC
:100DD00037B5C9010895882319F0813041F404C062
:100DE0008EB580648EBD08958EB58F7B8EBD0895BF
:100DF000882361F4662319F0623079F403C089B75F
:100E0000816002C089B7826089BF0895823029F469
:100E1000662319F489B7806289BF089583B78F7BF1
:100E200083BF83B7877F83BF80E060E00E94F806BE
:100E300083B78B7F83BF83B78D7F83BF83B78E7F5D
:100E400083BF0895882361F4662319F0623079F432
:100E500003C089B78E7F02C089B78D7F89BF08958F
:100E6000823029F4662319F489B78F7D89BF0895EC
:100E70001F920F920FB60F9211242F933F934F930F
:100E80005F936F937F938F939F93AF93BF93EF93F2
:100E9000FF938091880090918900A0918A00B09181
:100EA0008B000196A11DB11D80938800909389004D
:100EB000A0938A00B0938B0020917C0030917D003C
:100EC00040917E0050917F0082179307A407B507D9
:100ED00079F4E0918600F0918700309749F0099508
:100EE000109288001092890010928A0010928B0054
:100EF000FF91EF91BF91AF919F918F917F916F91F2
:100F00005F914F913F912F910F900FBE0F901F90C7
:100F100018951F920F920FB60F9211242F933F93A3
:100F20004F935F936F937F938F939F93AF93BF93F1
:100F3000EF93FF938091820090918300A0918400B1
:100F4000B09185000196A11DB11D80938200909300
:100F50008300A0938400B093850020917C003091A1
:100F60007D0040917E0050917F0082179307A40777
:100F7000B50779F4E0918000F0918100309749F055
:100F800009951092820010928300109284001092B2
:100F90008500FF91EF91BF91AF919F918F917F91CC
:100FA0006F915F914F913F912F910F900FBE0F90D6
:100FB0001F9018951F920F920FB60F9211242F9326
:100FC0003F934F935F936F937F938F939F93AF93D1
:100FD000BF93EF93FF93E0917A00F0917B003097FD
:100FE00009F00995FF91EF91BF91AF919F918F917A
:100FF0007F916F915F914F913F912F910F900FBE15
:101000000F901F9018958FB9779BFECF8FB10895E1
:101010008FB9779BFECF0895779BFECF8FB1089550
:1010200081E065E040E00E94C10881E067E040E0C7
:101030000E94C10881E066E041E00E94C1088AE5A3
:101040008DB908958FB780688FBF08958FB78F7758
:101050008FBF089585B7816085BF85B7826085BFE2
:101060008BB780648BBF0895E62FF0E0EE0FFF1F73
:10107000E457FF4F9183808308951F920F920FB61C
:101080000F9211242F933F934F935F936F937F930E
:101090008F939F93AF93BF93EF93FF93E0918C0057
:1010A000F0918D00309709F00995FF91EF91BF9174
:1010B000AF919F918F917F916F915F914F913F91F0
:1010C0002F910F900FBE0F901F9018951F920F92A7
:1010D0000FB60F9211242F933F934F935F936F930B
:1010E0007F938F939F93AF93BF93EF93FF93E09181
:1010F0008E00F0918F00309709F00995FF91EF91E4
:10110000BF91AF919F918F917F916F915F914F911F
:101110003F912F910F900FBE0F901F9018951F9227
:101120000F920FB60F9211242F933F934F935F931B
:101130006F937F938F939F93AF93BF93EF93FF939F
:10114000E0919000F0919100309709F00995FF919E
:10115000EF91BF91AF919F918F917F916F915F912F
:101160004F913F912F910F900FBE0F901F901895A8
:101170001ABA17BA14BA11BA1BBA18BA15BA12BAEF
:1011800008954130B1F5813099F0813030F08230EE
:10119000D1F0833009F067C021C02AB381E090E02C
:1011A00002C0880F991F6A95E2F7282B2ABB089581
:1011B00027B381E090E002C0880F991F6A95E2F79B
:1011C000282B27BB089524B381E090E002C0880F4C
:1011D000991F6A95E2F7282B24BB089521B381E07B
:1011E00090E002C0880F991F6A95E2F7282B21BB77
:1011F00008954423C1F5813099F0813028F0823080
:10120000D9F0833081F524C02AB381E090E002C098
:10121000880F991F6A95E2F7809582238ABB08950B
:1012200027B381E090E002C0880F991F6A95E2F72A
:101230008095822387BB089524B381E090E002C0AB
:10124000880F991F6A95E2F78095822384BB0895E1
:1012500021B381E090E002C0880F991F6A95E2F700
:101260008095822381BB08954130B1F5813099F09A
:10127000813030F08230D1F0833009F067C021C076
:101280002BB381E090E002C0880F991F6A95E2F7C6
:10129000282B2BBB089528B381E090E002C0880F73
:1012A000991F6A95E2F7282B28BB089525B381E0A2
:1012B00090E002C0880F991F6A95E2F7282B25BBA2
:1012C000089522B381E090E002C0880F991F6A95CB
:1012D000E2F7282B22BB08954423C1F5813099F011
:1012E000813028F08230D9F0833081F524C02BB3CF
:1012F00081E090E002C0880F991F6A95E2F780951F
:1013000082238BBB089528B381E090E002C0880F50
:10131000991F6A95E2F78095822388BB089525B3CB
:1013200081E090E002C0880F991F6A95E2F78095EE
:10133000822385BB089522B381E090E002C0880F2C
:10134000991F6A95E2F78095822382BB08958130C8
:1013500051F0813030F0823041F0833079F080E01C
:10136000089589B303C086B301C083B390E002C07F
:10137000959587956A95E2F78170089580B390E01E
:1013800002C0959587956A95E2F78170089581303E
:1013900049F0813028F0823039F0833041F406C0C2
:1013A0006ABB089567BB089564BB089561BB089547
:1013B000813049F0813028F0823039F0833041F4B7
:1013C00006C06BBB089568BB089565BB089562BBFA
:1013D0000895813051F0813030F0823041F0833017
:1013E00041F080E0089589B3089586B3089583B3EA
:1013F000089580B30895813091F0813028F08230D3
:10140000C9F0833061F521C02BB381E090E002C0C8
:10141000880F991F6A95E2F728272BBB089528B3F8
:1014200081E090E002C0880F991F6A95E2F72827B3
:1014300028BB089525B381E090E002C0880F991F72
:101440006A95E2F7282725BB089522B381E090E052
:1014500002C0880F991F6A95E2F7282722BB0895DA
:101460003F983E9A3D98329A319A30983598339801
:10147000379A089597B18770907E892B87B9369AED
:10148000349BFECF349A24B135B1C901089580E070
:1014900060E040E00E94340980E061E040E00E94AA
:1014A000340980E063E040E00E94340980E062E0BB
:1014B00040E00E9434090895AF92BF92CF92DF922C
:1014C000EF92FF920F931F935B016C0180E060E04D
:1014D00040E00E94340980E061E040E00E9434096D
:1014E00080E063E040E00E94340980E062E041E097
:1014F0000E943409C601B50120E030E04AEF54E40F
:101500000E941F027B018C0120E030E040E85FE395
:101510000E94790388231CF461E070E024C0C801B4
:10152000B70120E03FEF4FE757E40E941903181678
:10153000B4F4C601B50120E030E040E251E40E947D
:101540001F020E94490088EC90E005C0FC01319721
:10155000F1F76150704061157105C1F707C0C8010E
:10156000B7010E944900CB010197F1F780E060E0EC
:1015700040E00E94340980E061E040E00E943409CC
:1015800080E063E041E00E94340980E062E040E0F6
:101590000E943409C801B70120E030E040E85FE371
:1015A0000E94790388231CF461E070E024C0C80124
:1015B000B70120E03FEF4FE757E40E9419031816E8
:1015C000B4F4C601B50120E030E040E251E40E94ED
:1015D0001F020E94490088EC90E005C0FC01319791
:1015E000F1F76150704061157105C1F707C0C8017E
:1015F000B7010E944900CB010197F1F780E060E05C
:1016000040E00E94340980E061E041E00E9434093A
:1016100080E063E040E00E94340980E062E040E066
:101620000E943409C801B70120E030E040E85FE3E0
:101630000E94790388231CF461E070E024C0C80193
:10164000B70120E03FEF4FE757E40E941903181657
:10165000B4F4C601B50120E030E040E251E40E945C
:101660001F020E94490088EC90E005C0FC01319700
:10167000F1F76150704061157105C1F707C0C801ED
:10168000B7010E944900CB010197F1F780E060E0CB
:1016900041E00E94340980E061E040E00E943409AA
:1016A00080E063E040E00E94340980E062E040E0D6
:1016B0000E9434091F910F91FF90EF90DF90CF901F
:1016C000BF90AF900895AF92BF92CF92DF92EF920A
:1016D000FF920F931F935B016C0180E060E041E09B
:1016E0000E94340980E061E040E00E94340980E01B
:1016F00063E040E00E94340980E062E040E00E9444
:101700003409C601B50120E030E04AEF54E40E94FC
:101710001F027B018C0120E030E040E85FE30E9483
:10172000790388231CF461E070E024C0C801B7018C
:1017300020E03FEF4FE757E40E9419031816B4F476
:10174000C601B50120E030E040E251E40E941F02F2
:101750000E94490088EC90E005C0FC013197F1F748
:101760006150704061157105C1F707C0C801B7012C
:101770000E944900CB010197F1F780E060E040E072
:101780000E94340980E061E041E00E94340980E079
:1017900063E040E00E94340980E062E040E00E94A3
:1017A0003409C801B70120E030E040E85FE30E945F
:1017B000790388231CF461E070E024C0C801B701FC
:1017C00020E03FEF4FE757E40E9419031816B4F4E6
:1017D000C601B50120E030E040E251E40E941F0262
:1017E0000E94490088EC90E005C0FC013197F1F7B8
:1017F0006150704061157105C1F707C0C801B7019C
:101800000E944900CB010197F1F780E060E040E0E1
:101810000E94340980E061E040E00E94340980E0E9
:1018200063E041E00E94340980E062E040E00E9411
:101830003409C801B70120E030E040E85FE30E94CE
:10184000790388231CF461E070E024C0C801B7016B
:1018500020E03FEF4FE757E40E9419031816B4F455
:10186000C601B50120E030E040E251E40E941F02D1
:101870000E94490088EC90E005C0FC013197F1F727
:101880006150704061157105C1F707C0C801B7010B
:101890000E944900CB010197F1F780E060E040E051
:1018A0000E94340980E061E040E00E94340980E059
:1018B00063E040E00E94340980E062E041E00E9481
:1018C0003409C801B70120E030E040E85FE30E943E
:1018D000790388231CF461E070E024C0C801B701DB
:1018E00020E03FEF4FE757E40E9419031816B4F4C5
:1018F000C601B50120E030E040E251E40E941F0241
:101900000E94490088EC90E005C0FC013197F1F796
:101910006150704061157105C1F707C0C801B7017A
:101920000E944900CB010197F1F71F910F91FF90A1
:10193000EF90DF90CF90BF90AF90089580E060E08F
:1019400041E00E94C10880E061E041E00E94C108DE
:1019500080E063E041E00E94C10880E062E041E095
:101960000E94C108089580E06FEF0E94D809089591
:101970008A3048F4E82FF0E0E859FF4F6081609525
:1019800080E00E94D809089580E06FEF0E94C709A7
:1019900008950F931F93182F80E060E041E00E94AC
:1019A000340980E061E040E00E94340983E0612F67
:1019B0000E94D80980E062E041E00E94340900ED15
:1019C00017E0C8010197F1F780E062E040E00E9473
:1019D0003409C8010197F1F71F910F9108958F9273
:1019E0009F92BF92CF92DF92EF92FF920F931F933D
:1019F000DF93CF93CDB7DEB72A970FB6F894DEBF4B
:101A00000FBECDBF6B017C01FE0131968AE0DF0184
:101A10001D928A95E9F7BB244F011BC084010B0D71
:101A2000111DC701B6012AE030E040E050E00E94FD
:101A30009C0E605DF8016083C701B6012AE030E0CA
:101A400040E050E00E949C0EC901DA016C017D016A
:101A5000B3941C141D041E041F0404F38AE0E82E32
:101A6000F12CEC0EFD1ED7018C91882311F00E9401
:101A7000C90C0894E108F108EC16FD06A1F72A96B6
:101A80000FB6F894DEBF0FBECDBFCF91DF911F918F
:101A90000F91FF90EF90DF90CF90BF909F908F902D
:101AA00008951F93CF93DF93EC0110E003C00E94D1
:101AB000C90C1F5FFE01E10FF11D80818823B9F77A
:101AC000DF91CF911F9108950F931F93182F80E0FE
:101AD00060E040E00E94340980E061E040E00E9464
:101AE000340983E0612F0E94D80980E062E041E080
:101AF0000E94340900ED17E0C8010197F1F780E07A
:101B000062E040E00E943409C8010197F1F71F919B
:101B10000F91089581E00E94640D0895882319F0C3
:101B2000813051F405C0862F80580E94640D0895BD
:101B3000862F80540E94640D08950F931F9380E0B8
:101B400060E041E00E94C10880E061E041E00E9465
:101B5000C10880E062E041E00E94C10883E06FEFCD
:101B60000E94C70984EF91E028EC30E0F901319739
:101B7000F1F70197D9F788E30E94640D00ED17E0B3
:101B8000C8010197F1F78CE00E94640DC80101972C
:101B9000F1F781E00E94640D80EA9FE00197F1F780
:101BA00086E00E94640D1F910F9108958F929F927D
:101BB000BF92CF92DF92EF92FF920F931F93CF933A
:101BC000DF936C01EE24EA94C0E0D0E090E2892E2D
:101BD0009EE4992EBC2E81E06C2F40E00E943409D7
:101BE00086010C0F1D1F84E0F82E81E06F2D0E94EE
:101BF000A709882359F481E06F2D0E94A709882343
:101C0000D1F3C4010197F1F7F801E080F3940D5F7F
:101C10001F4FF8E0FF1649F781E06B2D41E00E946D
:101C200034092196C330D105A9F68E2DDF91CF91CD
:101C30001F910F91FF90EF90DF90CF90BF909F90FA
:101C40008F90089581E060E041E00E94C10881E04A
:101C500061E041E00E94C10881E062E041E00E9451
:101C6000C10881E064E040E00E94C10881E065E0D5
:101C700040E00E94C10881E066E040E00E94C108A7
:101C800081E067E040E00E94C10881E060E041E05F
:101C90000E94340981E061E041E00E94340981E062
:101CA00062E041E00E94340981E064E041E00E948A
:101CB000340981E065E041E00E94340981E066E09A
:101CC00041E00E94340981E067E041E00E9434096C
:101CD0000895629FD001739FF001829FE00DF11D76
:101CE000649FE00DF11D929FF00D839FF00D749F96
:101CF000F00D659FF00D9927729FB00DE11DF91F42
:101D0000639FB00DE11DF91FBD01CF01112408959E
:101D1000AA1BBB1B51E107C0AA1FBB1FA617B70711
:101D200010F0A61BB70B881F991F5A95A9F780952D
:101D30009095BC01CD01089597FB092E05260ED084
:101D400057FD04D014D00AD0001C38F450954095AB
:101D5000309521953F4F4F4F5F4F0895F6F790957F
:101D60008095709561957F4F8F4F9F4F0895A1E2A9
:101D70001A2EAA1BBB1BFD010DC0AA1FBB1FEE1F05
:101D8000FF1FA217B307E407F50720F0A21BB30B50
:101D9000E40BF50B661F771F881F991F1A9469F7CC
:101DA00060957095809590959B01AC01BD01CF0128
:101DB00008952F923F924F925F926F927F928F92EF
:101DC0009F92AF92BF92CF92DF92EF92FF920F93CA
:101DD0001F93CF93DF93CDB7DEB7CA1BDB0B0FB6D4
:101DE000F894DEBF0FBECDBF09942A883988488891
:101DF0005F846E847D848C849B84AA84B984C88427
:101E0000DF80EE80FD800C811B81AA81B981CE0F1D
:101E1000D11D0FB6F894DEBF0FBECDBFED01089502
:041E2000F894FFCF64
:101E240000000000000000003F065B4F666D7D0768
:021E34007F6FBE
:00000001FF
