:100000000C942A000C94DC0A0C94050B0C942E0B17
:100010000C9447000C9447000C94790A0C94470008
:100020000C9447000C9447000C94280A0C94D709B0
:100030000C9447000C9447000C9447000C94470024
:100040000C9447000C9447000C9447000C94470014
:100050000C94470011241FBECFE5D8E0DEBFCDBF12
:1000600010E0A0E6B0E0EAE9F3E202C005900D92EC
:10007000A43EB107D9F711E0A4EEB0E001C01D9293
:10008000AB30B107E1F70E94C3070C94CB110C947D
:100090000000EF92FF920F931F937B018C0120E0F1
:1000A00030E040E05FE40E94490388238CF0C801FF
:1000B000B70120E030E040E05FE40E94C1010E940F
:1000C000A9039B01AC01205030404040504806C07D
:1000D000C801B7010E94A9039B01AC01B901CA0183
:1000E0001F910F91FF90EF900895A0E0B0E0EBE733
:1000F000F0E00C948B11DC012B01FA019C91923001
:1001000008F439C1EB018881823008F433C194309E
:1001100069F4843009F02FC111969C91119789815F
:10012000981709F428C1A5ECB0E025C1843009F482
:1001300021C18230A9F4923009F01DC19A01AD01AC
:1001400088E0EA010990AE01E90109929E0181501F
:10015000C1F7E201898111969C918923818308C1AD
:10016000923009F407C112962D903C901397EB0141
:100170008A819B811496AD90BD90CD90DC901797AD
:10018000EC80FD800E811F819101281B390BB90184
:1001900037FF04C066277727621B730B6032710537
:1001A0000CF061C0121613066CF537014801062EDB
:1001B00004C096948794779467940A94D2F721E0C8
:1001C00030E040E050E004C0220F331F441F551FB1
:1001D0006A95D2F721503040404050402E213F21B7
:1001E00040235123211531054105510521F021E01E
:1001F00030E040E050E079018A01E628F72808293C
:1002000019293CC0232BD1F1260E371E350146019A
:10021000062E04C096948794779467940A94D2F734
:1002200021E030E040E050E004C0220F331F441FC3
:10023000551F6A95D2F721503040404050402A2146
:100240003B214C215D21211531054105510521F04E
:1002500021E030E040E050E059016A01A628B728CB
:10026000C828D9280BC0821593052CF01C01AA249C
:10027000BB24650103C0EE24FF24870111969C91E5
:10028000D20111968C91981709F445C0992339F041
:10029000A80197012A193B094C095D0906C0A6016E
:1002A00095012E193F09400B510B57FD08C01182D3
:1002B0003382228224833583468357831DC081E0A5
:1002C00081833382228288279927DC01821B930B4A
:1002D000A40BB50B84839583A683B7830DC0220F2F
:1002E000331F441F551F24833583468357838281E0
:1002F000938101979383828324813581468157813D
:10030000DA01C9010197A109B1098F5F9F4FAF4F72
:10031000BF4328F30BC0918333822282EA0CFB1C7B
:100320000C1D1D1DE482F5820683178383E0808304
:10033000248135814681578157FF1AC0C901AA27F8
:1003400097FDA095BA2F81709070A070B0705695EF
:10035000479537952795822B932BA42BB52B848318
:100360009583A683B7838281938101969383828349
:10037000DF0101C0D201CD01CDB7DEB7E2E10C94BF
:10038000A711A0E2B0E0E7ECF1E00C9497116983CB
:100390007A838B839C832D833E834F835887E9E048
:1003A000EE2EF12CEC0EFD1ECE010196B7010E943F
:1003B000D2048E010F5E1F4FCE010596B8010E9438
:1003C000D2048A8991E089278A8BC701B801AE01DE
:1003D000475E5F4F0E9475000E94FD03A096E6E015
:1003E0000C94B311A0E2B0E0E8EFF1E00C949711A7
:1003F00069837A838B839C832D833E834F835887C5
:10040000F9E0EF2EF12CEC0EFD1ECE010196B701A6
:100410000E94D2048E010F5E1F4FCE010596B801D7
:100420000E94D204C701B801AE01475E5F4F0E942F
:1004300075000E94FD03A096E6E00C94B311A0E2C3
:10044000B0E0E5E2F2E00C948B1169837A838B8350
:100450009C832D833E834F835887CE010196BE0136
:10046000675F7F4F0E94D204CE010596BE016F5E8A
:100470007F4F0E94D2049985923088F0898982301A
:10048000C8F0943019F4823051F404C0843029F457
:10049000923081F485EC90E0C6C0923049F420E0BF
:1004A0009A858A89981321E02A87CE010996BBC0D4
:1004B000823049F420E09A858A89981321E02A8BBA
:1004C000CE014196B0C02D843E844F8458886D88FB
:1004D0007E888F88988CEE24FF248701AA24BB2471
:1004E000650140E050E060E070E0E0E0F0E0C10174
:1004F00081709070892BE9F0E60CF71C081D191D1E
:100500009A01AB012A0D3B1D4C1D5D1D80E090E062
:10051000A0E0B0E0E614F7040805190520F481E036
:1005200090E0A0E0B0E0BA01A901480F591F6A1F8E
:100530007B1FAA0CBB1CCC1CDD1C97FE08C081E0F5
:1005400090E0A0E0B0E0A82AB92ACA2ADB2A3196B6
:10055000E032F10549F0660C771C881C991C569412
:10056000479437942794C3CFFA85EA892B893C892D
:100570008B859C85280F391F2E5F3F4F17C0CA01FE
:1005800081709070892B61F016950795F794E79428
:1005900080E090E0A0E0B0E8E82AF92A0A2B1B2BC3
:1005A00076956795579547952F5F3F4F77FDE7CF36
:1005B0000CC0440F551F661F771F17FD4160EE0CDE
:1005C000FF1C001F111F21503040403090E05907A0
:1005D00090E0690790E4790760F32B8F3C8FDB0193
:1005E000CA018F779070A070B07080349105A1051A
:1005F000B10561F447FD0AC0E114F10401051105DC
:1006000029F0405C5F4F6F4F7F4F40781A8EFE1786
:1006100011F081E08A8F4D8F5E8F6F8F78A383E01A
:10062000898FCE0149960E94FD03A096E2E10C94C9
:10063000A711A8E1B0E0EFE1F3E00C949711698312
:100640007A838B839C832D833E834F83588789E0F5
:10065000E82EF12CEC0EFD1ECE010196B7010E9492
:10066000D2048E010F5E1F4FCE010596B8010E9485
:10067000D2048985823040F08989823028F0C70110
:10068000B8010E944A0501C08FEF6896E6E00C941D
:10069000B311A8E1B0E0EFE4F3E00C9497116983A3
:1006A0007A838B839C832D833E834F83588789E095
:1006B000E82EF12CEC0EFD1ECE010196B7010E9432
:1006C000D2048E010F5E1F4FCE010596B8010E9425
:1006D000D2048985823040F08989823028F0C701B0
:1006E000B8010E944A0501C08FEF6896E6E00C94BD
:1006F000B311A8E1B0E0EFE7F3E00C949711698340
:100700007A838B839C832D833E834F83588789E034
:10071000E82EF12CEC0EFD1ECE010196B7010E94D1
:10072000D2048E010F5E1F4FCE010596B8010E94C4
:10073000D2048985823040F08989823028F0C7014F
:10074000B8010E944A0501C081E06896E6E00C9479
:10075000B311ACE0B0E0EFEAF3E00C949B116983D5
:100760007A838B839C83CE010196BE016B5F7F4FA2
:100770000E94D2048D81823061F1823050F1843048
:1007800021F48E81882351F12EC02F81388537FDC9
:1007900020C06E812F3131051CF06623F9F023C093
:1007A0008EE190E0821B930B29853A854B855C8511
:1007B00004C056954795379527958A95D2F76623B5
:1007C000B1F050954095309521953F4F4F4F5F4F79
:1007D0000EC020E030E040E050E009C02FEF3FEFD6
:1007E0004FEF5FE704C020E030E040E050E8B9019F
:1007F000CA012C96E2E00C94B711DF92EF92FF92BF
:100800000F931F93FC01E480F58006811781D1804E
:100810008081823048F480E090E0A0E1B0E0E82AF6
:10082000F92A0A2B1B2BA5C0843009F49FC0823003
:1008300021F4EE24FF24870105C0E114F104010531
:10084000110519F4E0E0F0E096C0628173819FEF3A
:10085000623879070CF05BC022E83FEF261B370BAC
:100860002A3131052CF020E030E040E050E02AC091
:10087000B801A701022E04C0769567955795479554
:100880000A94D2F781E090E0A0E0B0E004C0880FC5
:10089000991FAA1FBB1F2A95D2F70197A109B10979
:1008A0008E219F21A023B1230097A105B10521F03E
:1008B00081E090E0A0E0B0E09A01AB01282B392B59
:1008C0004A2B5B2BDA01C9018F779070A070B07052
:1008D00080349105A105B10539F427FF09C0205CDA
:1008E0003F4F4F4F5F4F04C0215C3F4F4F4F5F4F13
:1008F000E0E0F0E02030A0E03A07A0E04A07A0E402
:100900005A0710F0E1E0F0E079018A0127C0603871
:10091000710564F5FB01E158FF4FD801C7018F77DE
:100920009070A070B07080349105A105B10539F4C4
:10093000E7FE0DC080E490E0A0E0B0E004C08FE3EB
:1009400090E0A0E0B0E0E80EF91E0A1F1B1F17FFA1
:1009500005C016950795F794E794319687E01695AC
:100960000795F794E7948A95D1F705C0EE24FF2404
:100970008701EFEFF0E06E2F679566276795902F60
:100980009F77D794DD24D7948E2F8695492F462BB9
:10099000582F5D29B701CA011F910F91FF90EF9069
:1009A000DF900895FC01DB01408151812281622F9B
:1009B0006F7770E0221F2227221F9381892F880FD3
:1009C000822B282F30E0991F9927991F11969C930D
:1009D000119721153105A9F54115510561057105DD
:1009E00011F482E037C082E89FEF13969C938E93B8
:1009F00012979A01AB0167E0220F331F441F551F66
:100A00006A95D1F783E08C930DC0220F331F441FEA
:100A1000551F12968D919C911397019713969C9355
:100A20008E931297203080E0380780E0480780E4FA
:100A3000580758F314962D933D934D935C93179755
:100A400008952F3F310579F4411551056105710570
:100A500019F484E08C93089564FF03C081E08C93C3
:100A600012C01C9210C02F57304013963C932E9307
:100A7000129783E08C9387E0440F551F661F771F02
:100A80008A95D1F7706414964D935D936D937C9322
:100A9000179708951F93DC01FB019C91923008F495
:100AA00047C08081823008F443C0943051F41196DD
:100AB0001C91843099F58181682F70E0611B710968
:100AC0003FC0843021F0923031F48230B9F181811D
:100AD000882389F12DC011961C9111978230F1F075
:100AE00081811817D9F412962D913C911397828128
:100AF00093818217930794F028173907BCF0149656
:100B00008D919D910D90BC91A02D248135814681C0
:100B10005781281739074A075B0718F4112341F05A
:100B20000AC082179307A407B50740F4112319F0F0
:100B300061E070E005C06FEF7FEF02C060E070E041
:100B4000CB011F9108950E94291080E060E00E946F
:100B50002D1080E690E00E94F00F80E066E00E9499
:100B60002D1084E690E00E94F00F81E060E00E948A
:100B70002D1089E690E00E94F00F81E066E00E946F
:100B80002D108EE690E00E94F00F089581E06FE353
:100B900070E00E94580908959DE7899FC0011124C3
:100BA00064EB70E00E943B1163587F4F81E00E942C
:100BB00058090895EF92FF920F931F93DF93CF93FD
:100BC00000D000D00F92CDB7DEB70E94291080E090
:100BD00060E00E942D1083E790E00E94F00F88E80B
:100BE00093E128EC30E0F9013197F1F70197D9F75B
:100BF00081E060E00E942D1080E890E00E94F00FFC
:100C000088E893E128EC30E0F9013197F1F701979A
:100C1000D9F70E94291080E060E00E942D108FE833
:100C200090E00E94F00F81E060E00E942D1006E04D
:100C300011E088ECE82EF12C8DEC90E00E9475100C
:100C40008F3FD1F3F80180830E94680F88EE93E014
:100C5000F7013197F1F70197D9F78AE20E94680FFF
:100C60000F5F1F4FF1E00A301F0731F7F8011082C4
:100C700088EB9BE028EC30E0F9013197F1F7019720
:100C8000D9F7DE011196E5EAF0E085E001900D92DA
:100C90008150E1F70E94291080E060E00E942D1051
:100CA00086E091E0BE016F5F7F4F0E94C211009706
:100CB000A9F481E08093E6008AE50E94CC0580E1FA
:100CC00097E228EC30E0F9013197F1F70197D9F775
:100CD00081E06FE370E00E9458090FC08BE990E05B
:100CE0000E94F00F88EB9BE028EC30E0F90131978F
:100CF000F1F70197D9F70E94DA050F900F900F9046
:100D00000F900F90CF91DF911F910F91FF90EF9077
:100D1000089583E067E040E00E94D30B089583E0EC
:100D200067E041E00E94D30B089540E00E94D30B9E
:100D3000089541E00E94D30B08950E94291080E09D
:100D400060E00E942D108AEA90E00E94F00F81E09E
:100D500060E00E942D1082EB90E00E94F00F80E096
:100D600066E040E00E94D30B8AE50E94CC0583E058
:100D700067E041E00E94D30B80E064E041E00E9424
:100D8000D30B089580E00E94D90CAC0128E833E130
:100D900088EC90E0FC013197F1F721503040D1F719
:100DA0008091EB00882379F582E047325807A0F064
:100DB0008091E400882381F46AE00E942D1081EC88
:100DC00090E00E94F00F80E062E041E00E94D30BCF
:100DD00081E08093E4000895445F514098F580914C
:100DE000E400813079F580E06AE00E942D1083EC08
:100DF00090E00E94F00F80E062E040E00E94D30BA0
:100E00001092E40008958091EC00882371F080E056
:100E10006AE00E942D1081EC90E00E94F00F80E0CB
:100E200062E041E00E94D30B089580E06AE00E94F6
:100E30002D1083EC90E00E94F00F80E062E040E033
:100E40000E94D30B0895CF93DF9381E00E94D90CC9
:100E5000A0E0B0E0BC01CD0128E833E140E050E083
:100E60000E940811DC01CB012AE0B695A795979561
:100E700087952A95D1F76AE070E00E942711EB016F
:100E800081E06AE00E942D10BE0180E090E00E94A7
:100E90008E0F88E893E128EC30E0F9013197F1F703
:100EA0000197D9F78091E700882309F042C0CE016D
:100EB0004E974E9738F58091ED00882319F564E040
:100EC0000E942D1081EC90E00E94F00F83E067E01B
:100ED00041E00E94D30B84EF91E028EC30E0F9016F
:100EE0003197F1F70197D9F783E067E040E00E947E
:100EF000D30B80E066E041E00E94D30B81E0809359
:100F0000ED0034C0CE31D10588F58091ED008130FF
:100F100091F580E064E00E942D1083EC90E00E9447
:100F2000F00F80E066E040E00E94D30B1092ED00ED
:100F300022C08091E800882361F080E064E00E9494
:100F40002D1081EC90E00E94F00F80E066E041E01F
:100F50000BC080E064E00E942D1083EC90E00E94C2
:100F6000F00F80E066E040E00E94D30BED9718F0B0
:100F70000E949D0605C080E064E040E00E94D30B23
:100F8000DF91CF9108951F93CF93DF9380E062E0CC
:100F900040E00E94D30B80E061E040E00E94600BE3
:100FA00080E060E040E00E94600B80E065E040E0AF
:100FB0000E94600B80E062E041E00E94600B80E0F4
:100FC00066E041E00E94600B80E064E041E00E9446
:100FD000600B83E065E041E00E94600B83E067E026
:100FE00041E00E94600B80E065E041E00E94D30B8D
:100FF00083E062E040E00E94600B83E062E041E059
:101000000E94D30B0E94C10A0E94C90A0E948E0945
:101010000E94CF0C0E94C9080E943C100E94C1107F
:101020008DE996E060E00E94D30A81E00E943E09CB
:101030000E94DA050E94A30511E0C8ECD0E00E94EE
:10104000D5088093E5008D34B1F08E3440F48434BB
:1010500071F18634F1F0813409F044C013C0843654
:1010600069F1853618F48735E9F52FC08636C1F069
:101070008737C1F531C01093E7001093E900109352
:10108000EB0030C01092E7001092E9001092EB00E4
:1010900029C08091E700813029F58093E80022C0C3
:1010A0008091E7008130F1F41092E8001BC080913C
:1010B000E9008130B9F48093EA0014C08091E9001E
:1010C000813081F41092EA000DC08091EB008130F4
:1010D00049F48093EC0006C08091EB00813011F45C
:1010E0001092EC0081E06DE00E942D108091E900EB
:1010F000882311F08DE401C081E40E94680F0E94F2
:10110000C2060E9423078091E9008823C9F465E0A4
:101110000E94460C882309F092CF8AE50E94CC05F4
:1011200081E064E00E942D1081EC90E00E94F00FBD
:1011300088E893E1FE013197F1F70197D9F70EC0E6
:101140008091EA00882351F08AE50E94CC0581E075
:1011500064E00E942D1081EC90E00BC081E06FE311
:1011600070E00E94580981E064E00E942D1083EC39
:1011700090E00E94F00F63CF91B58770987F892B24
:1011800081BD81B5886081BD089588E181BD11BCB4
:10119000089588E18AB986E880BD83E389B910BCE7
:1011A00008955D9BFECF8CB908958CB1089586B7E4
:1011B0008B7F86BF8AE080B9089584EA86BF06B631
:1011C00007FEFDCF81B1887F089584EA86BF06B609
:1011D00007FEFDCF81B1887F0895880F862B83B9E4
:1011E00084E886BF86B78F7D86BF06B607FEFDCF33
:1011F00081B1887F089583B984E886BF06B607FE6B
:10120000FDCF81B1887F0895FC01662339F06130FC
:1012100051F484E886BF86B7806404C084E886BF42
:1012200086B78F7B86BF06B607FEFDCF83B180836E
:1012300081B1887F089584E986BF81B1887F089550
:1012400081B1887F08954093F0005093F10060933E
:10125000F2007093F3009093FB008093FA000895DE
:101260009093F5008093F4004093F0005093F100C8
:101270006093F2007093F3002CBF0895882329F443
:1012800083B7887F826083BF0895823021F48EB552
:10129000887F82608EBD0895882321F483B7887F7C
:1012A00083BF0895823019F48EB5887F8EBD08956E
:1012B000882319F0813029F402C06CBF08957BBDEA
:1012C0006ABD08959093EF008093EE00089526B5CF
:1012D00037B5C9010895882319F0813041F404C05D
:1012E0008EB580648EBD08958EB58F7B8EBD0895BA
:1012F000882361F4662319F0623079F403C089B75A
:10130000816002C089B7826089BF0895823029F464
:10131000662319F489B7806289BF089583B7806412
:1013200083BF83B7886083BF80E063E00E94780951
:1013300083B78B7F83BF83B78D7F83BF83B78E7F58
:1013400083BF8FB580688FBD8FB58F7B8FBD8FB505
:1013500082608FBD8FB58E7F8FBD8EB588608EBD4C
:101360008EB580618EBD8EB581608EBD8EB582607A
:101370008EBD8EB58B7F8EBD83EC99E097BD86BD0B
:101380000895882361F4662319F0623079F403C06C
:1013900089B78E7F02C089B78D7F89BF089582305B
:1013A00029F4662319F489B78F7D89BF08951F92A8
:1013B0000F920FB60F9211242F933F934F935F9389
:1013C0006F937F938F939F93AF93BF93EF93FF930D
:1013D0008091FC009091FD00A091FE00B091FF0073
:1013E0000196A11DB11D8093FC009093FD00A09378
:1013F000FE00B093FF002091F0003091F100409189
:10140000F2005091F30082179307A407B50779F40F
:10141000E091FA00F091FB00309749F009951092A5
:10142000FC001092FD001092FE001092FF00FF9150
:10143000EF91BF91AF919F918F917F916F915F914C
:101440004F913F912F910F900FBE0F901F901895C5
:101450001F920F920FB60F9211242F933F934F9329
:101460005F936F937F938F939F93AF93BF93EF930C
:10147000FF938091F6009091F700A091F800B09151
:10148000F9000196A11DB11D8093F6009093F7001D
:10149000A093F800B093F9002091F0003091F10092
:1014A0004091F2005091F30082179307A407B5070B
:1014B00079F4E091F400F091F500309749F0099546
:1014C0001092F6001092F7001092F8001092F900B6
:1014D000FF91EF91BF91AF919F918F917F916F910C
:1014E0005F914F913F912F910F900FBE0F901F90E2
:1014F00018951F920F920FB60F9211242F933F93BE
:101500004F935F936F937F938F939F93AF93BF930B
:10151000EF93FF93E091EE00F091EF00309709F028
:101520000995FF91EF91BF91AF919F918F917F911D
:101530006F915F914F913F912F910F900FBE0F9040
:101540001F9018958FB9779BFECF8FB108958FB9F3
:10155000779BFECF0895779BFECF8FB1089581E0F2
:1015600065E040E00E94600B81E067E040E00E949F
:10157000600B81E066E041E00E94600B8AE58DB976
:1015800008958FB780688FBF08958FB78F778FBF0B
:10159000089585B7816085BF85B7826085BF8BB7A9
:1015A00080648BBF0895E62FF0E0EE0FFF1FE05040
:1015B000FF4F9183808308951F920F920FB60F9271
:1015C00011242F933F934F935F936F937F938F9348
:1015D0009F93AF93BF93EF93FF93E0910001F0913E
:1015E0000101309709F00995FF91EF91BF91AF91FB
:1015F0009F918F917F916F915F914F913F912F912B
:101600000F900FBE0F901F9018951F920F920FB65C
:101610000F9211242F933F934F935F936F937F9378
:101620008F939F93AF93BF93EF93FF93E09102014A
:10163000F0910301309709F00995FF91EF91BF9167
:10164000AF919F918F917F916F915F914F913F915A
:101650002F910F900FBE0F901F9018951F920F9211
:101660000FB60F9211242F933F934F935F936F9375
:101670007F938F939F93AF93BF93EF93FF93E091EB
:101680000401F0910501309709F00995FF91EF9160
:10169000BF91AF919F918F917F916F915F914F918A
:1016A0003F912F910F900FBE0F901F9018951ABA6F
:1016B00017BA14BA11BA1BBA18BA15BA12BA0895E1
:1016C0004130B1F5813099F0813030F08230D1F085
:1016D000833009F067C021C02AB381E090E002C0E6
:1016E000880F991F6A95E2F7282B2ABB089527B324
:1016F00081E090E002C0880F991F6A95E2F7282BDD
:1017000027BB089524B381E090E002C0880F991FA1
:101710006A95E2F7282B24BB089521B381E090E07D
:1017200002C0880F991F6A95E2F7282B21BB089504
:101730004423C1F5813099F0813028F08230D9F00E
:10174000833081F524C02AB381E090E002C0880F85
:10175000991F6A95E2F7809582238ABB089527B383
:1017600081E090E002C0880F991F6A95E2F78095AA
:10177000822387BB089524B381E090E002C0880FE4
:10178000991F6A95E2F78095822384BB089521B35F
:1017900081E090E002C0880F991F6A95E2F780957A
:1017A000822381BB08954130B1F5813099F08130B9
:1017B00030F08230D1F0833009F067C021C02BB304
:1017C00081E090E002C0880F991F6A95E2F7282B0C
:1017D0002BBB089528B381E090E002C0880F991FC9
:1017E0006A95E2F7282B28BB089525B381E090E0A5
:1017F00002C0880F991F6A95E2F7282B25BB089530
:1018000022B381E090E002C0880F991F6A95E2F749
:10181000282B22BB08954423C1F5813099F08130F3
:1018200028F08230D9F0833081F524C02BB381E0D9
:1018300090E002C0880F991F6A95E2F78095822395
:101840008BBB089528B381E090E002C0880F991FF8
:101850006A95E2F78095822388BB089525B381E0DD
:1018600090E002C0880F991F6A95E2F78095822365
:1018700085BB089522B381E090E002C0880F991FD4
:101880006A95E2F78095822382BB0895813051F0FA
:10189000813030F0823041F0833079F080E008957B
:1018A00089B303C086B301C083B390E002C09595AD
:1018B00087956A95E2F78170089580B390E002C041
:1018C000959587956A95E2F781700895813049F082
:1018D000813028F0823039F0833041F406C06ABB91
:1018E000089567BB089564BB089561BB0895813076
:1018F00049F0813028F0823039F0833041F406C05D
:101900006BBB089568BB089565BB089562BB0895DD
:10191000813051F0813030F0823041F0833041F03D
:1019200080E0089589B3089586B3089583B3089538
:1019300080B30895813091F0813028F08230C9F071
:10194000833061F521C02BB381E090E002C0880FA5
:10195000991F6A95E2F728272BBB089528B381E0E9
:1019600090E002C0880F991F6A95E2F7282728BBEC
:10197000089525B381E090E002C0880F991F6A9511
:10198000E2F7282725BB089522B381E090E002C04A
:10199000880F991F6A95E2F7282722BB08953F9880
:1019A0003E9A3D98329A319A309835983398379AC2
:1019B000089597B18770907E892B87B9369A349BAA
:1019C000FECF349A24B135B1C901089580E060E0BA
:1019D00040E00E94D30B80E061E040E00E94D30B26
:1019E00080E063E040E00E94D30B80E062E040E0F2
:1019F0000E94D30B0895AF92BF92CF92DF92EF92E5
:101A0000FF920F931F935B016C0180E060E040E068
:101A10000E94D30B80E061E040E00E94D30B80E0A5
:101A200063E040E00E94D30B80E062E041E00E946E
:101A3000D30BC601B50120E030E04AEF54E40E9428
:101A40001F027B018C0120E030E040E85FE30E9450
:101A5000790388231CF461E070E024C0C801B70159
:101A600020E03FEF4FE757E40E9419031816B4F443
:101A7000C601B50120E030E040E251E40E941F02BF
:101A80000E94490088EC90E005C0FC013197F1F715
:101A90006150704061157105C1F707C0C801B701F9
:101AA0000E944900CB010197F1F780E060E040E03F
:101AB0000E94D30B80E061E040E00E94D30B80E005
:101AC00063E041E00E94D30B80E062E040E00E94CE
:101AD000D30BC801B70120E030E040E85FE30E948B
:101AE000790388231CF461E070E024C0C801B701C9
:101AF00020E03FEF4FE757E40E9419031816B4F4B3
:101B0000C601B50120E030E040E251E40E941F022E
:101B10000E94490088EC90E005C0FC013197F1F784
:101B20006150704061157105C1F707C0C801B70168
:101B30000E944900CB010197F1F780E060E040E0AE
:101B40000E94D30B80E061E041E00E94D30B80E073
:101B500063E040E00E94D30B80E062E040E00E943E
:101B6000D30BC801B70120E030E040E85FE30E94FA
:101B7000790388231CF461E070E024C0C801B70138
:101B800020E03FEF4FE757E40E9419031816B4F422
:101B9000C601B50120E030E040E251E40E941F029E
:101BA0000E94490088EC90E005C0FC013197F1F7F4
:101BB0006150704061157105C1F707C0C801B701D8
:101BC0000E944900CB010197F1F780E060E041E01D
:101BD0000E94D30B80E061E040E00E94D30B80E0E4
:101BE00063E040E00E94D30B80E062E040E00E94AE
:101BF000D30B1F910F91FF90EF90DF90CF90BF908C
:101C0000AF900895AF92BF92CF92DF92EF92FF9282
:101C10000F931F935B016C0180E060E041E00E9444
:101C2000D30B80E061E040E00E94D30B80E063E0F2
:101C300040E00E94D30B80E062E040E00E94D30BC2
:101C4000C601B50120E030E04AEF54E40E941F02D3
:101C50007B018C0120E030E040E85FE30E947903E3
:101C600088231CF461E070E024C0C801B70120E0C3
:101C70003FEF4FE757E40E9419031816B4F4C6016A
:101C8000B50120E030E040E251E40E941F020E94D2
:101C9000490088EC90E005C0FC013197F1F76150F4
:101CA000704061157105C1F707C0C801B7010E94F6
:101CB0004900CB010197F1F780E060E040E00E942D
:101CC000D30B80E061E041E00E94D30B80E063E051
:101CD00040E00E94D30B80E062E040E00E94D30B22
:101CE000C801B70120E030E040E85FE30E947903DB
:101CF00088231CF461E070E024C0C801B70120E033
:101D00003FEF4FE757E40E9419031816B4F4C601D9
:101D1000B50120E030E040E251E40E941F020E9441
:101D2000490088EC90E005C0FC013197F1F7615063
:101D3000704061157105C1F707C0C801B7010E9465
:101D40004900CB010197F1F780E060E040E00E949C
:101D5000D30B80E061E040E00E94D30B80E063E0C1
:101D600041E00E94D30B80E062E040E00E94D30B90
:101D7000C801B70120E030E040E85FE30E9479034A
:101D800088231CF461E070E024C0C801B70120E0A2
:101D90003FEF4FE757E40E9419031816B4F4C60149
:101DA000B50120E030E040E251E40E941F020E94B1
:101DB000490088EC90E005C0FC013197F1F76150D3
:101DC000704061157105C1F707C0C801B7010E94D5
:101DD0004900CB010197F1F780E060E040E00E940C
:101DE000D30B80E061E040E00E94D30B80E063E031
:101DF00040E00E94D30B80E062E041E00E94D30B00
:101E0000C801B70120E030E040E85FE30E947903B9
:101E100088231CF461E070E024C0C801B70120E011
:101E20003FEF4FE757E40E9419031816B4F4C601B8
:101E3000B50120E030E040E251E40E941F020E9420
:101E4000490088EC90E005C0FC013197F1F7615042
:101E5000704061157105C1F707C0C801B7010E9444
:101E60004900CB010197F1F71F910F91FF90EF907F
:101E7000DF90CF90BF90AF90089580E060E041E0A8
:101E80000E94600B80E061E041E00E94600B80E016
:101E900063E041E00E94600B80E062E041E00E946C
:101EA000600B089580E06FEF0E94770C08958A30F0
:101EB00048F4E82FF0E0E752FF4F6081609580E042
:101EC0000E94770C089580E06FEF0E94660C0895E1
:101ED0000F931F93182F83E063E041E00E94D30B20
:101EE00083E064E040E00E94D30B82E0612F0E9417
:101EF000770C83E066E041E00E94D30B00ED17E031
:101F0000C8010197F1F783E066E040E00E94D30B3F
:101F1000C8010197F1F71F910F9108958F929F9239
:101F2000BF92CF92DF92EF92FF920F931F93DF93B6
:101F3000CF93CDB7DEB72A970FB6F894DEBF0FBEAA
:101F4000CDBF6B017C01FE0131968AE0DF011D925D
:101F50008A95E9F7BB244F011BC084010B0D111DAD
:101F6000C701B6012AE030E040E050E00E944E1187
:101F7000605DF8016083C701B6012AE030E040E00F
:101F800050E00E944E11C901DA016C017D01B39449
:101F90001C141D041E041F0404F38AE0E82EF12C17
:101FA000EC0EFD1ED7018C91882311F00E94680F62
:101FB0000894E108F108EC16FD06A1F72A960FB681
:101FC000F894DEBF0FBECDBFCF91DF911F910F916F
:101FD000FF90EF90DF90CF90BF909F908F900895EB
:101FE0001F93CF93DF93EC0110E003C00E94680FB2
:101FF0001F5FFE01E10FF11D80818823B9F7DF919A
:10200000CF911F9108950F931F93182F83E063E0E2
:1020100040E00E94D30B83E064E040E00E94D30BD9
:1020200082E0612F0E94770C83E066E041E00E942D
:10203000D30B00ED17E0C8010197F1F783E066E0EC
:1020400040E00E94D30BC8010197F1F71F910F9157
:10205000089581E00E9403100895882319F08130CB
:1020600051F405C0862F80580E9403100895862FD2
:1020700080540E94031008950F931F9383E063E040
:1020800041E00E94600B83E064E041E00E94600B4D
:1020900083E066E041E00E94600B82E06FEF0E9407
:1020A000660C84EF91E028EC30E0F9013197F1F70C
:1020B0000197D9F788E30E94031000ED17E0C801EB
:1020C0000197F1F78CE00E940310C8010197F1F726
:1020D00081E00E94031080EA9FE00197F1F786E01B
:1020E0000E9403101F910F9108958F929F92BF92AB
:1020F000CF92DF92EF92FF920F931F93CF93DF93D4
:102100006C01EE24EA94C0E0D0E090E2892E9EE4D7
:10211000992EBC2E81E06C2F40E00E94D30B8601EB
:102120000C0F1D1F84E0F82E81E06F2D0E94460CDD
:10213000882359F481E06F2D0E94460C8823D1F347
:10214000C4010197F1F7F801E080F3940D5F1F4F90
:10215000F8E0FF1649F781E06B2D41E00E94D30BB8
:102160002196C330D105A9F68E2DDF91CF911F9115
:102170000F91FF90EF90DF90CF90BF909F908F9046
:10218000089581E060E041E00E94600B81E061E041
:1021900041E00E94600B81E062E041E00E94600B40
:1021A00081E064E040E00E94600B81E065E040E097
:1021B0000E94600B81E066E040E00E94600B81E0DD
:1021C00067E040E00E94600B81E060E041E00E9437
:1021D000D30B81E061E041E00E94D30B81E062E03B
:1021E00041E00E94D30B81E064E041E00E94D30B08
:1021F00081E065E041E00E94D30B81E066E041E0D0
:102200000E94D30B81E067E041E00E94D30B089568
:10221000629FD001739FF001829FE00DF11D649FCA
:10222000E00DF11D929FF00D839FF00D749FF00D56
:10223000659FF00D9927729FB00DE11DF91F639FF7
:10224000B00DE11DF91FBD01CF0111240895AA1B96
:10225000BB1B51E107C0AA1FBB1FA617B70710F091
:10226000A61BB70B881F991F5A95A9F780959095C3
:10227000BC01CD01089597FB092E07260AD077FDF2
:1022800004D0E5DF06D000201AF4709561957F4FE9
:102290000895F6F7909581959F4F089597FB092E25
:1022A00005260ED057FD04D014D00AD0001C38F4F7
:1022B00050954095309521953F4F4F4F5F4F089572
:1022C000F6F790958095709561957F4F8F4F9F4F52
:1022D0000895A1E21A2EAA1BBB1BFD010DC0AA1F67
:1022E000BB1FEE1FFF1FA217B307E407F50720F07F
:1022F000A21BB30BE40BF50B661F771F881F991FFA
:102300001A9469F760957095809590959B01AC0142
:10231000BD01CF0108952F923F924F925F926F922D
:102320007F928F929F92AF92BF92CF92DF92EF9265
:10233000FF920F931F93CF93DF93CDB7DEB7CA1BE6
:10234000DB0B0FB6F894DEBF0FBECDBF09942A8811
:10235000398848885F846E847D848C849B84AA84B9
:10236000B984C884DF80EE80FD800C811B81AA8146
:10237000B981CE0FD11D0FB6F894DEBF0FBECDBF11
:10238000ED010895FB01DC018D9101908019011090
:0A239000D9F3990B0895F894FFCFDC
:10239A0046414E0057494E4400444F4F520054455F
:1023AA004D500057656C636F6D6520486F6D650011
:1023BA00456E74657220546865206B65793A0054DD
:1023CA004845204B45592049533A0077726F6E674A
:1023DA00206B6579003132333400616C6572742187
:1023EA002100436C6F73696E672053797374656D4E
:1023FA00004F004300000000000000000037383999
:10240A003435363132332A30233F065B4F666D7DD1
:04241A00077F6F00C9
:00000001FF
