:100000000C942A000C94190A0C94420A0C946B0A62
:100010000C9447000C9447000C94B6090C944700CC
:100020000C9447000C9447000C9465090C94140937
:100030000C9447000C9447000C9447000C94470024
:100040000C9447000C9447000C9447000C94470014
:100050000C94470011241FBECFE5D8E0DEBFCDBF12
:1000600010E0A0E6B0E0E4E1F2E202C005900D92FB
:10007000A83EB107D9F711E0A8EEB0E001C01D928B
:10008000AE30B107E1F70E9493070C9408110C946D
:100090000000EF92FF920F931F937B018C0120E0F1
:1000A00030E040E05FE40E94490388238CF0C801FF
:1000B000B70120E030E040E05FE40E94C1010E940F
:1000C000A9039B01AC01205030404040504806C07D
:1000D000C801B7010E94A9039B01AC01B901CA0183
:1000E0001F910F91FF90EF900895A0E0B0E0EBE733
:1000F000F0E00C94C810DC012B01FA019C919230C5
:1001000008F439C1EB018881823008F433C194309E
:1001100069F4843009F02FC111969C91119789815F
:10012000981709F428C1AAECB0E025C1843009F47D
:1001300021C18230A9F4923009F01DC19A01AD01AC
:1001400088E0EA010990AE01E90109929E0181501F
:10015000C1F7E201898111969C918923818308C1AD
:10016000923009F407C112962D903C901397EB0141
:100170008A819B811496AD90BD90CD90DC901797AD
:10018000EC80FD800E811F819101281B390BB90184
:1001900037FF04C066277727621B730B6032710537
:1001A0000CF061C0121613066CF537014801062EDB
:1001B00004C096948794779467940A94D2F721E0C8
:1001C00030E040E050E004C0220F331F441F551FB1
:1001D0006A95D2F721503040404050402E213F21B7
:1001E00040235123211531054105510521F021E01E
:1001F00030E040E050E079018A01E628F72808293C
:1002000019293CC0232BD1F1260E371E350146019A
:10021000062E04C096948794779467940A94D2F734
:1002200021E030E040E050E004C0220F331F441FC3
:10023000551F6A95D2F721503040404050402A2146
:100240003B214C215D21211531054105510521F04E
:1002500021E030E040E050E059016A01A628B728CB
:10026000C828D9280BC0821593052CF01C01AA249C
:10027000BB24650103C0EE24FF24870111969C91E5
:10028000D20111968C91981709F445C0992339F041
:10029000A80197012A193B094C095D0906C0A6016E
:1002A00095012E193F09400B510B57FD08C01182D3
:1002B0003382228224833583468357831DC081E0A5
:1002C00081833382228288279927DC01821B930B4A
:1002D000A40BB50B84839583A683B7830DC0220F2F
:1002E000331F441F551F24833583468357838281E0
:1002F000938101979383828324813581468157813D
:10030000DA01C9010197A109B1098F5F9F4FAF4F72
:10031000BF4328F30BC0918333822282EA0CFB1C7B
:100320000C1D1D1DE482F5820683178383E0808304
:10033000248135814681578157FF1AC0C901AA27F8
:1003400097FDA095BA2F81709070A070B0705695EF
:10035000479537952795822B932BA42BB52B848318
:100360009583A683B7838281938101969383828349
:10037000DF0101C0D201CD01CDB7DEB7E2E10C94BF
:10038000E410A0E2B0E0E7ECF1E00C94D410698353
:100390007A838B839C832D833E834F835887E9E048
:1003A000EE2EF12CEC0EFD1ECE010196B7010E943F
:1003B000D2048E010F5E1F4FCE010596B8010E9438
:1003C000D2048A8991E089278A8BC701B801AE01DE
:1003D000475E5F4F0E9475000E94FD03A096E6E015
:1003E0000C94F010A0E2B0E0E8EFF1E00C94D4102F
:1003F00069837A838B839C832D833E834F835887C5
:10040000F9E0EF2EF12CEC0EFD1ECE010196B701A6
:100410000E94D2048E010F5E1F4FCE010596B801D7
:100420000E94D204C701B801AE01475E5F4F0E942F
:1004300075000E94FD03A096E6E00C94F010A0E287
:10044000B0E0E5E2F2E00C94C81069837A838B8314
:100450009C832D833E834F835887CE010196BE0136
:10046000675F7F4F0E94D204CE010596BE016F5E8A
:100470007F4F0E94D2049985923088F0898982301A
:10048000C8F0943019F4823051F404C0843029F457
:10049000923081F48AEC90E0C6C0923049F420E0BA
:1004A0009A858A89981321E02A87CE010996BBC0D4
:1004B000823049F420E09A858A89981321E02A8BBA
:1004C000CE014196B0C02D843E844F8458886D88FB
:1004D0007E888F88988CEE24FF248701AA24BB2471
:1004E000650140E050E060E070E0E0E0F0E0C10174
:1004F00081709070892BE9F0E60CF71C081D191D1E
:100500009A01AB012A0D3B1D4C1D5D1D80E090E062
:10051000A0E0B0E0E614F7040805190520F481E036
:1005200090E0A0E0B0E0BA01A901480F591F6A1F8E
:100530007B1FAA0CBB1CCC1CDD1C97FE08C081E0F5
:1005400090E0A0E0B0E0A82AB92ACA2ADB2A3196B6
:10055000E032F10549F0660C771C881C991C569412
:10056000479437942794C3CFFA85EA892B893C892D
:100570008B859C85280F391F2E5F3F4F17C0CA01FE
:1005800081709070892B61F016950795F794E79428
:1005900080E090E0A0E0B0E8E82AF92A0A2B1B2BC3
:1005A00076956795579547952F5F3F4F77FDE7CF36
:1005B0000CC0440F551F661F771F17FD4160EE0CDE
:1005C000FF1C001F111F21503040403090E05907A0
:1005D00090E0690790E4790760F32B8F3C8FDB0193
:1005E000CA018F779070A070B07080349105A1051A
:1005F000B10561F447FD0AC0E114F10401051105DC
:1006000029F0405C5F4F6F4F7F4F40781A8EFE1786
:1006100011F081E08A8F4D8F5E8F6F8F78A383E01A
:10062000898FCE0149960E94FD03A096E2E10C94C9
:10063000E410A8E1B0E0EFE1F3E00C94D41069839A
:100640007A838B839C832D833E834F83588789E0F5
:10065000E82EF12CEC0EFD1ECE010196B7010E9492
:10066000D2048E010F5E1F4FCE010596B8010E9485
:10067000D2048985823040F08989823028F0C70110
:10068000B8010E944A0501C08FEF6896E6E00C941D
:10069000F010A8E1B0E0EFE4F3E00C94D41069832B
:1006A0007A838B839C832D833E834F83588789E095
:1006B000E82EF12CEC0EFD1ECE010196B7010E9432
:1006C000D2048E010F5E1F4FCE010596B8010E9425
:1006D000D2048985823040F08989823028F0C701B0
:1006E000B8010E944A0501C08FEF6896E6E00C94BD
:1006F000F010A8E1B0E0EFE7F3E00C94D4106983C8
:100700007A838B839C832D833E834F83588789E034
:10071000E82EF12CEC0EFD1ECE010196B7010E94D1
:10072000D2048E010F5E1F4FCE010596B8010E94C4
:10073000D2048985823040F08989823028F0C7014F
:10074000B8010E944A0501C081E06896E6E00C9479
:10075000F010ACE0B0E0EFEAF3E00C94D81069835D
:100760007A838B839C83CE010196BE016B5F7F4FA2
:100770000E94D2048D81823061F1823050F1843048
:1007800021F48E81882351F12EC02F81388537FDC9
:1007900020C06E812F3131051CF06623F9F023C093
:1007A0008EE190E0821B930B29853A854B855C8511
:1007B00004C056954795379527958A95D2F76623B5
:1007C000B1F050954095309521953F4F4F4F5F4F79
:1007D0000EC020E030E040E050E009C02FEF3FEFD6
:1007E0004FEF5FE704C020E030E040E050E8B9019F
:1007F000CA012C96E2E00C94F410DF92EF92FF9283
:100800000F931F93FC01E480F58006811781D1804E
:100810008081823048F480E090E0A0E1B0E0E82AF6
:10082000F92A0A2B1B2BA5C0843009F49FC0823003
:1008300021F4EE24FF24870105C0E114F104010531
:10084000110519F4E0E0F0E096C0628173819FEF3A
:10085000623879070CF05BC022E83FEF261B370BAC
:100860002A3131052CF020E030E040E050E02AC091
:10087000B801A701022E04C0769567955795479554
:100880000A94D2F781E090E0A0E0B0E004C0880FC5
:10089000991FAA1FBB1F2A95D2F70197A109B10979
:1008A0008E219F21A023B1230097A105B10521F03E
:1008B00081E090E0A0E0B0E09A01AB01282B392B59
:1008C0004A2B5B2BDA01C9018F779070A070B07052
:1008D00080349105A105B10539F427FF09C0205CDA
:1008E0003F4F4F4F5F4F04C0215C3F4F4F4F5F4F13
:1008F000E0E0F0E02030A0E03A07A0E04A07A0E402
:100900005A0710F0E1E0F0E079018A0127C0603871
:10091000710564F5FB01E158FF4FD801C7018F77DE
:100920009070A070B07080349105A105B10539F4C4
:10093000E7FE0DC080E490E0A0E0B0E004C08FE3EB
:1009400090E0A0E0B0E0E80EF91E0A1F1B1F17FFA1
:1009500005C016950795F794E794319687E01695AC
:100960000795F794E7948A95D1F705C0EE24FF2404
:100970008701EFEFF0E06E2F679566276795902F60
:100980009F77D794DD24D7948E2F8695492F462BB9
:10099000582F5D29B701CA011F910F91FF90EF9069
:1009A000DF900895FC01DB01408151812281622F9B
:1009B0006F7770E0221F2227221F9381892F880FD3
:1009C000822B282F30E0991F9927991F11969C930D
:1009D000119721153105A9F54115510561057105DD
:1009E00011F482E037C082E89FEF13969C938E93B8
:1009F00012979A01AB0167E0220F331F441F551F66
:100A00006A95D1F783E08C930DC0220F331F441FEA
:100A1000551F12968D919C911397019713969C9355
:100A20008E931297203080E0380780E0480780E4FA
:100A3000580758F314962D933D934D935C93179755
:100A400008952F3F310579F4411551056105710570
:100A500019F484E08C93089564FF03C081E08C93C3
:100A600012C01C9210C02F57304013963C932E9307
:100A7000129783E08C9387E0440F551F661F771F02
:100A80008A95D1F7706414964D935D936D937C9322
:100A9000179708951F93DC01FB019C91923008F495
:100AA00047C08081823008F443C0943051F41196DD
:100AB0001C91843099F58181682F70E0611B710968
:100AC0003FC0843021F0923031F48230B9F181811D
:100AD000882389F12DC011961C9111978230F1F075
:100AE00081811817D9F412962D913C911397828128
:100AF00093818217930794F028173907BCF0149656
:100B00008D919D910D90BC91A02D248135814681C0
:100B10005781281739074A075B0718F4112341F05A
:100B20000AC082179307A407B50740F4112319F0F0
:100B300061E070E005C06FEF7FEF02C060E070E041
:100B4000CB011F91089581E061E040E00E94100B0D
:100B5000089581E061E041E00E94100B08950F9339
:100B60001F93182F062F642F40E00E94100B812F37
:100B7000602F40E00E94100B1F910F9108950F937A
:100B80001F93182F042F41E00E94100B812F602F1C
:100B900040E00E94100B1F910F9108950F931F9337
:100BA000182F062F642F41E00E94100B812F602F19
:100BB00040E00E94100B1F910F91089580E00E9469
:100BC000160C9C019093ED008093EC0083E02032A2
:100BD000380718F18091E8008823F9F462E043E0D7
:100BE0000E94CE0588E893E128EC30E0F9013197C6
:100BF000F1F70197D9F780E062E043E00E94AF058A
:100C000088E893E128EC30E0F9013197F1F701979A
:100C1000D9F781E08093E80008952C52314010F517
:100C20008091E8008130F1F480E062E043E00E94CE
:100C3000BF0588E893E128EC30E0F9013197F1F73E
:100C40000197D9F780E062E043E00E94AF0588E8B1
:100C500093E128EC30E0F9013197F1F70197D9F7EA
:100C60001092E800089581E060E070E00E9495082D
:100C700008959DE7899FC001112464EB70E00E94F4
:100C8000781063587F4F81E00E9495080895CF93B4
:100C9000DF9381E00E94160CA0E0B0E0BC01CD0122
:100CA00028E833E140E050E00E944510DC01CB0130
:100CB0002AE0B695A795979587952A95D1F76AE08A
:100CC00070E00E946410EB01CB014E974E9770F5D7
:100CD0008091EF00882351F581E061E040E00E94BF
:100CE000100B0E94660F80E060E00E946A0F80E6B1
:100CF00090E00E942D0F81E061E041E00E94100B26
:100D000084EF91E028EC30E0F9013197F1F7019799
:100D1000D9F781E061E040E00E94100B81E0809310
:100D2000EF0062E043E00E94CE0523C0CE31D10542
:100D300000F58091EF00813009F045C061E040E0AE
:100D40000E94100B0E94660F80E060E00E946A0F14
:100D500081E060E070E00E94950889E690E00E94E2
:100D60002D0F1092EF0081E062E043E00E94AF059A
:100D70002AC0ED9740F10E94660F80E060E00E947B
:100D80006A0F86E790E00E942D0F81E060E00E94EC
:100D90006A0F8EE790E00E942D0F81E062E043E051
:100DA0000E94AF058AE50E94390681E061E041E0DA
:100DB0000E94100B80E064E041E00E94100B81E093
:100DC0008093EF0005C080E064E040E00E94100BDB
:100DD000DF91CF910895EF92FF920F931F93DF93CE
:100DE000CF9300D000D00F92CDB7DEB70E94660F30
:100DF00080E060E00E946A0F8DE890E00E942D0F75
:100E000088E893E128EC30E0F9013197F1F7019798
:100E1000D9F781E060E00E946A0F8AE990E00E94C1
:100E20002D0F88E893E128EC30E0F9013197F1F7D4
:100E30000197D9F70E94660F80E060E00E946A0F78
:100E400089EA90E00E942D0F81E060E00E946A0F25
:100E500009E011E038ECE32EF12C82ED90E00E94E5
:100E6000B20F8F3FD1F3F80180830E94A50E88EE68
:100E700093E0F7013197F1F70197D9F78AE20E94E1
:100E8000A50E0F5F1F4FF1E00D301F0731F7F8017E
:100E9000108288EB9BE028EC30E0F9013197F1F704
:100EA0000197D9F7DE011196E5ECF0E085E00190BD
:100EB0000D928150E1F70E94660F80E060E00E9491
:100EC0006A0F89E091E0BE016F5F7F4F0E94FF10C3
:100ED0000097E9F08091F000823029F485EB90E0F2
:100EE0000E942D0F14C08BEB90E00E942D0F80917B
:100EF000F0008F5F8093F00088EB9BE028EC30E0FF
:100F0000F9013197F1F70197D9F70E94EB060F909D
:100F10000F900F900F900F90CF91DF911F910F9135
:100F2000FF90EF900895CF93DF930E94FE090E94F7
:100F3000060A0E94CB080E940C0C0E9404080E9422
:100F4000790F80E061E040E00E949D0A80E060E06F
:100F500040E00E949D0A80E066E040E00E949D0A19
:100F600080E062E041E00E949D0A80E063E041E0B1
:100F70000E949D0A81E062E041E00E949D0A81E0BA
:100F800063E041E00E949D0A81E061E041E00E944F
:100F90009D0A80E064E041E00E949D0A83E065E0F4
:100FA00041E00E949D0A80E066E041E00E94100B53
:100FB00081E00E947B08C8ECD0E00E94DE050E9420
:100FC000470680E066E00E94830B8823B1F78AE53C
:100FD0000E94390688E893E1FE013197F1F7019705
:100FE000D9F781E060E070E00E949508E6CF91B506
:100FF0008770987F892B81BD81B5886081BD0895F8
:1010000088E181BD11BC089588E18AB986E880BD78
:1010100083E389B910BC08955D9BFECF8CB9089518
:101020005F9BFECF8CB1089586B78B7F86BF8AE029
:1010300080B9089584EA86BF06B607FEFDCF81B168
:10104000887F089584EA86BF06B607FEFDCF81B18A
:10105000887F0895880F862B83B984E886BF86B77A
:101060008F7D86BF06B607FEFDCF81B1887F0895CC
:1010700083B984E886BF06B607FEFDCF81B1887FBD
:101080000895FC01662339F0613051F484E886BF8D
:1010900086B7806404C084E886BF86B78F7B86BF2E
:1010A00083B1808306B607FEFDCF81B1887F0895A6
:1010B00084E986BF81B1887F089581B1887F0895D2
:1010C0004093F3005093F4006093F5007093F600A2
:1010D0009093FE008093FD0008959093F800809314
:1010E000F7004093F3005093F4006093F500709381
:1010F000F6002CBF0895882329F483B7887F826087
:1011000083BF0895823021F48EB5887F82608EBDC2
:101110000895882321F483B7887F83BF08958230A0
:1011200019F48EB5887F8EBD0895882319F081301B
:1011300029F402C06CBF08957BBD6ABD08959093E9
:10114000F2008093F100089526B537B5C9010895DE
:10115000882319F0813041F404C08EB580648EBDBF
:1011600008958EB58F7B8EBD0895882361F4662324
:1011700019F0623079F403C089B7816002C089B781
:10118000826089BF0895823029F4662319F489B7F3
:10119000806289BF089583B7806483BF83B7877FE8
:1011A00083BF80E062E00E94B50883B78B7F83BF76
:1011B00083B78D7F83BF83B78E7F83BF8FB58068F2
:1011C0008FBD8FB58F7B8FBD8FB582608FBD8FB583
:1011D0008E7F8FBD8EB588608EBD8EB580618EBDD1
:1011E0008EB581608EBD8EB582608EBD8EB58B7FD3
:1011F0008EBD83EC99E097BD86BD0895882361F488
:10120000662319F0623079F403C089B78E7F02C07B
:1012100089B78D7F89BF0895823029F4662319F438
:1012200089B78F7D89BF08951F920F920FB60F92D5
:1012300011242F933F934F935F936F937F938F93DB
:101240009F93AF93BF93EF93FF938091FF00909193
:101250000001A0910101B09102010196A11DB11DF3
:101260008093FF0090930001A0930101B0930201CD
:101270002091F3003091F4004091F5005091F60078
:1012800082179307A407B50779F4E091FD00F09168
:10129000FE00309749F009951092FF00109200016E
:1012A0001092010110920201FF91EF91BF91AF9155
:1012B0009F918F917F916F915F914F913F912F916E
:1012C0000F900FBE0F901F9018951F920F920FB6A0
:1012D0000F9211242F933F934F935F936F937F93BC
:1012E0008F939F93AF93BF93EF93FF938091F900F8
:1012F0009091FA00A091FB00B091FC000196A11D15
:10130000B11D8093F9009093FA00A093FB00B09375
:10131000FC002091F3003091F4004091F5005091D1
:10132000F60082179307A407B50779F4E091F70058
:10133000F091F800309749F009951092F900109259
:10134000FA001092FB001092FC00FF91EF91BF9108
:10135000AF919F918F917F916F915F914F913F914D
:101360002F910F900FBE0F901F9018951F920F9204
:101370000FB60F9211242F933F934F935F936F9368
:101380007F938F939F93AF93BF93EF93FF93E091DE
:10139000F100F091F200309709F00995FF91EF917B
:1013A000BF91AF919F918F917F916F915F914F917D
:1013B0003F912F910F900FBE0F901F9018958FB9EE
:1013C000779BFECF8FB108958FB9779BFECF08959D
:1013D000779BFECF8FB1089581E065E040E00E94E9
:1013E0009D0A81E067E040E00E949D0A81E066E09E
:1013F00041E00E949D0A8AE58DB908958FB7806803
:101400008FBF08958FB78F778FBF089585B781609D
:1014100085BF85B7826085BF8BB780648BBF089519
:10142000E62FF0E0EE0FFF1FED5FFE4F918380830C
:1014300008951F920F920FB60F9211242F933F938E
:101440004F935F936F937F938F939F93AF93BF93CC
:10145000EF93FF93E0910301F0910401309709F0BD
:101460000995FF91EF91BF91AF919F918F917F91DE
:101470006F915F914F913F912F910F900FBE0F9001
:101480001F9018951F920F920FB60F9211242F9351
:101490003F934F935F936F937F938F939F93AF93FC
:1014A000BF93EF93FF93E0910501F0910601309710
:1014B00009F00995FF91EF91BF91AF919F918F91A5
:1014C0007F916F915F914F913F912F910F900FBE40
:1014D0000F901F9018951F920F920FB60F92112424
:1014E0002F933F934F935F936F937F938F939F932C
:1014F000AF93BF93EF93FF93E0910701F091080141
:10150000309709F00995FF91EF91BF91AF919F91AD
:101510008F917F916F915F914F913F912F910F909C
:101520000FBE0F901F9018951ABA17BA14BA11BAB5
:101530001BBA18BA15BA12BA08954130B1F5813004
:1015400099F0813030F08230D1F0833009F067C0FB
:1015500021C02AB381E090E002C0880F991F6A95EC
:10156000E2F7282B2ABB089527B381E090E002C060
:10157000880F991F6A95E2F7282B27BB089524B39B
:1015800081E090E002C0880F991F6A95E2F7282B4E
:1015900024BB089521B381E090E002C0880F991F19
:1015A0006A95E2F7282B21BB08954423C1F58130C9
:1015B00099F0813028F08230D9F0833081F524C051
:1015C0002AB381E090E002C0880F991F6A95E2F784
:1015D000809582238ABB089527B381E090E002C002
:1015E000880F991F6A95E2F78095822387BB08953B
:1015F00024B381E090E002C0880F991F6A95E2F75A
:101600008095822384BB089521B381E090E002C0DD
:10161000880F991F6A95E2F78095822381BB089510
:101620004130B1F5813099F0813030F08230D1F025
:10163000833009F067C021C02BB381E090E002C085
:10164000880F991F6A95E2F7282B2BBB089528B3C2
:1016500081E090E002C0880F991F6A95E2F7282B7D
:1016600028BB089525B381E090E002C0880F991F40
:101670006A95E2F7282B25BB089522B381E090E01C
:1016800002C0880F991F6A95E2F7282B22BB0895A4
:101690004423C1F5813099F0813028F08230D9F0AF
:1016A000833081F524C02BB381E090E002C0880F25
:1016B000991F6A95E2F7809582238BBB089528B322
:1016C00081E090E002C0880F991F6A95E2F780954B
:1016D000822388BB089525B381E090E002C0880F83
:1016E000991F6A95E2F78095822385BB089522B3FE
:1016F00081E090E002C0880F991F6A95E2F780951B
:10170000822382BB0895813051F0813030F08230E5
:1017100041F0833079F080E0089589B303C086B347
:1017200001C083B390E002C0959587956A95E2F772
:101730008170089580B390E002C0959587956A9571
:10174000E2F781700895813049F0813028F08230CD
:1017500039F0833041F406C06ABB089567BB089531
:1017600064BB089561BB0895813049F0813028F051
:10177000823039F0833041F406C06BBB089568BBFA
:10178000089565BB089562BB0895813051F08130A2
:1017900030F0823041F0833041F080E0089589B329
:1017A000089586B3089583B3089580B30895813072
:1017B00091F0813028F08230C9F0833061F521C08A
:1017C0002BB381E090E002C0880F991F6A95E2F781
:1017D00028272BBB089528B381E090E002C0880F32
:1017E000991F6A95E2F7282728BB089525B381E061
:1017F00090E002C0880F991F6A95E2F7282725BB61
:10180000089522B381E090E002C0880F991F6A9585
:10181000E2F7282722BB08953F983E9A3D98329AD6
:10182000319A309835983398379A089597B18770E0
:10183000907E892B87B9369A349BFECF349A24B197
:1018400035B1C901089580E060E040E00E94100BCE
:1018500080E061E040E00E94100B80E063E040E047
:101860000E94100B80E062E040E00E94100B08959F
:10187000AF92BF92CF92DF92EF92FF920F931F939E
:101880005B016C0180E060E040E00E94100B80E0B2
:1018900061E040E00E94100B80E063E040E00E94C5
:1018A000100B80E062E041E00E94100BC601B50120
:1018B00020E030E04AEF54E40E941F027B018C01DB
:1018C00020E030E040E85FE30E94790388231CF4C5
:1018D00061E070E024C0C801B70120E03FEF4FE7AE
:1018E00057E40E9419031816B4F4C601B50120E0AC
:1018F00030E040E251E40E941F020E94490088EC5F
:1019000090E005C0FC013197F1F76150704061151E
:101910007105C1F707C0C801B7010E944900CB019A
:101920000197F1F780E060E040E00E94100B80E05A
:1019300061E040E00E94100B80E063E041E00E9423
:10194000100B80E062E040E00E94100BC801B7017C
:1019500020E030E040E85FE30E94790388231CF434
:1019600061E070E024C0C801B70120E03FEF4FE71D
:1019700057E40E9419031816B4F4C601B50120E01B
:1019800030E040E251E40E941F020E94490088ECCE
:1019900090E005C0FC013197F1F76150704061158E
:1019A0007105C1F707C0C801B7010E944900CB010A
:1019B0000197F1F780E060E040E00E94100B80E0CA
:1019C00061E041E00E94100B80E063E040E00E9493
:1019D000100B80E062E040E00E94100BC801B701EC
:1019E00020E030E040E85FE30E94790388231CF4A4
:1019F00061E070E024C0C801B70120E03FEF4FE78D
:101A000057E40E9419031816B4F4C601B50120E08A
:101A100030E040E251E40E941F020E94490088EC3D
:101A200090E005C0FC013197F1F7615070406115FD
:101A30007105C1F707C0C801B7010E944900CB0179
:101A40000197F1F780E060E041E00E94100B80E038
:101A500061E040E00E94100B80E063E040E00E9403
:101A6000100B80E062E040E00E94100B1F910F918C
:101A7000FF90EF90DF90CF90BF90AF900895AF921E
:101A8000BF92CF92DF92EF92FF920F931F935B0171
:101A90006C0180E060E041E00E94100B80E061E0BA
:101AA00040E00E94100B80E063E040E00E94100BD9
:101AB00080E062E040E00E94100BC601B50120E02A
:101AC00030E04AEF54E40E941F027B018C0120E0C9
:101AD00030E040E85FE30E94790388231CF461E072
:101AE00070E024C0C801B70120E03FEF4FE757E4A2
:101AF0000E9419031816B4F4C601B50120E030E0C5
:101B000040E251E40E941F020E94490088EC90E0EC
:101B100005C0FC013197F1F7615070406115710506
:101B2000C1F707C0C801B7010E944900CB01019766
:101B3000F1F780E060E040E00E94100B80E061E09F
:101B400041E00E94100B80E063E040E00E94100B37
:101B500080E062E040E00E94100BC801B70120E085
:101B600030E040E85FE30E94790388231CF461E0E1
:101B700070E024C0C801B70120E03FEF4FE757E411
:101B80000E9419031816B4F4C601B50120E030E034
:101B900040E251E40E941F020E94490088EC90E05C
:101BA00005C0FC013197F1F7615070406115710576
:101BB000C1F707C0C801B7010E944900CB010197D6
:101BC000F1F780E060E040E00E94100B80E061E00F
:101BD00040E00E94100B80E063E041E00E94100BA7
:101BE00080E062E040E00E94100BC801B70120E0F5
:101BF00030E040E85FE30E94790388231CF461E051
:101C000070E024C0C801B70120E03FEF4FE757E480
:101C10000E9419031816B4F4C601B50120E030E0A3
:101C200040E251E40E941F020E94490088EC90E0CB
:101C300005C0FC013197F1F76150704061157105E5
:101C4000C1F707C0C801B7010E944900CB01019745
:101C5000F1F780E060E040E00E94100B80E061E07E
:101C600040E00E94100B80E063E040E00E94100B17
:101C700080E062E041E00E94100BC801B70120E063
:101C800030E040E85FE30E94790388231CF461E0C0
:101C900070E024C0C801B70120E03FEF4FE757E4F0
:101CA0000E9419031816B4F4C601B50120E030E013
:101CB00040E251E40E941F020E94490088EC90E03B
:101CC00005C0FC013197F1F7615070406115710555
:101CD000C1F707C0C801B7010E944900CB010197B5
:101CE000F1F71F910F91FF90EF90DF90CF90BF9091
:101CF000AF90089580E060E041E00E949D0A80E09E
:101D000061E041E00E949D0A80E063E041E00E94C2
:101D10009D0A80E062E041E00E949D0A089580E013
:101D20006FEF0E94B40B08958A3048F4E82FF0E07A
:101D3000E252FF4F6081609580E00E94B40B0895ED
:101D400080E06FEF0E94A30B08950F931F93182F4D
:101D500083E063E041E00E94100B83E064E040E038
:101D60000E94100B82E0612F0E94B40B83E065E0BB
:101D700041E00E94100B00ED17E0C8010197F1F758
:101D800083E065E040E00E94100BC8010197F1F785
:101D90001F910F9108958F929F92BF92CF92DF92E1
:101DA000EF92FF920F931F93DF93CF93CDB7DEB7E0
:101DB0002A970FB6F894DEBF0FBECDBF6B017C0132
:101DC000FE0131968AE0DF011D928A95E9F7BB2476
:101DD0004F011BC084010B0D111DC701B6012AE084
:101DE00030E040E050E00E948B10605DF8016083BD
:101DF000C701B6012AE030E040E050E00E948B10BD
:101E0000C901DA016C017D01B3941C141D041E0488
:101E10001F0404F38AE0E82EF12CEC0EFD1ED7011E
:101E20008C91882311F00E94A50E0894E108F10816
:101E3000EC16FD06A1F72A960FB6F894DEBF0FBE8A
:101E4000CDBFCF91DF911F910F91FF90EF90DF9069
:101E5000CF90BF909F908F9008951F93CF93DF9363
:101E6000EC0110E003C00E94A50E1F5FFE01E10F10
:101E7000F11D80818823B9F7DF91CF911F910895DB
:101E80000F931F93182F83E063E040E00E94100B34
:101E900083E064E040E00E94100B82E0612F0E942A
:101EA000B40B83E065E041E00E94100B00ED17E009
:101EB000C8010197F1F783E065E040E00E94100B54
:101EC000C8010197F1F71F910F91089581E00E94D9
:101ED000400F0895882319F0813051F405C0862FF2
:101EE00080580E94400F0895862F80540E94400F12
:101EF00008950F931F9383E063E041E00E949D0AE1
:101F000083E064E041E00E949D0A83E065E041E0F7
:101F10000E949D0A82E06FEF0E94A30B84EF91E084
:101F200028EC30E0F9013197F1F70197D9F788E310
:101F30000E94400F00ED17E0C8010197F1F78CE017
:101F40000E94400FC8010197F1F781E00E94400F05
:101F500080EA9FE00197F1F786E00E94400F1F9111
:101F60000F9108958F929F92BF92CF92DF92EF923E
:101F7000FF920F931F93CF93DF936C01EE24EA94AB
:101F8000C0E0D0E090E2892E9EE4992EBC2E81E044
:101F90006C2F40E00E94100B86010C0F1D1F84E087
:101FA000F82E81E06F2D0E94830B882359F481E085
:101FB0006F2D0E94830B8823D1F3C4010197F1F7A1
:101FC000F801E080F3940D5F1F4FF8E0FF1649F72A
:101FD00081E06B2D41E00E94100B2196C330D105AA
:101FE000A9F68E2DDF91CF911F910F91FF90EF9069
:101FF000DF90CF90BF909F908F90089581E060E038
:1020000041E00E949D0A81E061E041E00E949D0A5A
:1020100081E062E041E00E949D0A81E064E040E0EE
:102020000E949D0A81E065E040E00E949D0A81E0F7
:1020300066E040E00E949D0A81E067E040E00E9487
:102040009D0A81E060E041E00E94100B81E061E0C8
:1020500041E00E94100B81E062E041E00E94100B21
:1020600081E064E041E00E94100B81E065E041E026
:102070000E94100B81E066E041E00E94100B81E0BD
:1020800067E041E00E94100B0895629FD001739FAA
:10209000F001829FE00DF11D649FE00DF11D929F04
:1020A000F00D839FF00D749FF00D659FF00D992743
:1020B000729FB00DE11DF91F639FB00DE11DF91F67
:1020C000BD01CF0111240895AA1BBB1B51E107C01C
:1020D000AA1FBB1FA617B70710F0A61BB70B881FB8
:1020E000991F5A95A9F780959095BC01CD01089547
:1020F00097FB092E07260AD077FD04D0E5DF06D02E
:1021000000201AF4709561957F4F0895F6F7909529
:1021100081959F4F089597FB092E05260ED057FDF8
:1021200004D014D00AD0001C38F450954095309556
:1021300021953F4F4F4F5F4F0895F6F7909580954B
:10214000709561957F4F8F4F9F4F0895A1E21A2E92
:10215000AA1BBB1BFD010DC0AA1FBB1FEE1FFF1F4B
:10216000A217B307E407F50720F0A21BB30BE40B9B
:10217000F50B661F771F881F991F1A9469F76095E2
:102180007095809590959B01AC01BD01CF0108959C
:102190002F923F924F925F926F927F928F929F9277
:1021A000AF92BF92CF92DF92EF92FF920F931F9365
:1021B000CF93DF93CDB7DEB7CA1BDB0B0FB6F89416
:1021C000DEBF0FBECDBF09942A88398848885F8456
:1021D0006E847D848C849B84AA84B984C884DF80C7
:1021E000EE80FD800C811B81AA81B981CE0FD11DAB
:1021F0000FB6F894DEBF0FBECDBFED010895FB0111
:10220000DC018D91019080190110D9F3990B08958B
:04221000F894FFCF70
:102214004F70656E2066616E00436C6F7365205766
:10222400696E646F7700616C657274212100436C80
:102234006F73696E672053797374656D0057656CAD
:10224400636F6D6520486F6D6500456E746572201F
:10225400546865206B65793A00544845204B4559CC
:102264002049533A00616C61726D0077726F6E673A
:10227400206B657900313233340000000000000027
:1022840000003738393435363132332A30233F06AB
:082294005B4F666D7D077F6F53
:00000001FF
